{
	"_format": "hh-sol-artifact-1",
	"contractName": "Collection",
	"sourceName": "contracts/FlatCollection.sol",
	"abi": [
		{
			"inputs": [
				{
					"internalType": "string",
					"name": "_name",
					"type": "string"
				},
				{
					"internalType": "string",
					"name": "_abbrev",
					"type": "string"
				}
			],
			"stateMutability": "nonpayable",
			"type": "constructor"
		},
		{
			"anonymous": false,
			"inputs": [
				{
					"indexed": true,
					"internalType": "address",
					"name": "account",
					"type": "address"
				}
			],
			"name": "Airdrop",
			"type": "event"
		},
		{
			"anonymous": false,
			"inputs": [
				{
					"indexed": true,
					"internalType": "address",
					"name": "owner",
					"type": "address"
				},
				{
					"indexed": true,
					"internalType": "address",
					"name": "approved",
					"type": "address"
				},
				{
					"indexed": true,
					"internalType": "uint256",
					"name": "tokenId",
					"type": "uint256"
				}
			],
			"name": "Approval",
			"type": "event"
		},
		{
			"anonymous": false,
			"inputs": [
				{
					"indexed": true,
					"internalType": "address",
					"name": "owner",
					"type": "address"
				},
				{
					"indexed": true,
					"internalType": "address",
					"name": "operator",
					"type": "address"
				},
				{
					"indexed": false,
					"internalType": "bool",
					"name": "approved",
					"type": "bool"
				}
			],
			"name": "ApprovalForAll",
			"type": "event"
		},
		{
			"anonymous": false,
			"inputs": [
				{
					"indexed": true,
					"internalType": "string",
					"name": "uri",
					"type": "string"
				}
			],
			"name": "BaseUri",
			"type": "event"
		},
		{
			"anonymous": false,
			"inputs": [
				{
					"indexed": true,
					"internalType": "address",
					"name": "previousOwner",
					"type": "address"
				},
				{
					"indexed": true,
					"internalType": "address",
					"name": "newOwner",
					"type": "address"
				}
			],
			"name": "OwnershipTransferred",
			"type": "event"
		},
		{
			"anonymous": false,
			"inputs": [
				{
					"indexed": true,
					"internalType": "bytes32",
					"name": "role",
					"type": "bytes32"
				},
				{
					"indexed": true,
					"internalType": "bytes32",
					"name": "previousAdminRole",
					"type": "bytes32"
				},
				{
					"indexed": true,
					"internalType": "bytes32",
					"name": "newAdminRole",
					"type": "bytes32"
				}
			],
			"name": "RoleAdminChanged",
			"type": "event"
		},
		{
			"anonymous": false,
			"inputs": [
				{
					"indexed": true,
					"internalType": "bytes32",
					"name": "role",
					"type": "bytes32"
				},
				{
					"indexed": true,
					"internalType": "address",
					"name": "account",
					"type": "address"
				},
				{
					"indexed": true,
					"internalType": "address",
					"name": "sender",
					"type": "address"
				}
			],
			"name": "RoleGranted",
			"type": "event"
		},
		{
			"anonymous": false,
			"inputs": [
				{
					"indexed": true,
					"internalType": "bytes32",
					"name": "role",
					"type": "bytes32"
				},
				{
					"indexed": true,
					"internalType": "address",
					"name": "account",
					"type": "address"
				},
				{
					"indexed": true,
					"internalType": "address",
					"name": "sender",
					"type": "address"
				}
			],
			"name": "RoleRevoked",
			"type": "event"
		},
		{
			"anonymous": false,
			"inputs": [
				{
					"indexed": true,
					"internalType": "bool",
					"name": "status",
					"type": "bool"
				}
			],
			"name": "SaleStatus",
			"type": "event"
		},
		{
			"anonymous": false,
			"inputs": [
				{
					"indexed": true,
					"internalType": "address",
					"name": "account",
					"type": "address"
				},
				{
					"indexed": true,
					"internalType": "uint256",
					"name": "amount",
					"type": "uint256"
				}
			],
			"name": "Skimmed",
			"type": "event"
		},
		{
			"anonymous": false,
			"inputs": [
				{
					"indexed": true,
					"internalType": "address",
					"name": "from",
					"type": "address"
				},
				{
					"indexed": true,
					"internalType": "address",
					"name": "to",
					"type": "address"
				},
				{
					"indexed": true,
					"internalType": "uint256",
					"name": "tokenId",
					"type": "uint256"
				}
			],
			"name": "Transfer",
			"type": "event"
		},
		{
			"stateMutability": "payable",
			"type": "fallback"
		},
		{
			"inputs": [],
			"name": "ADMIN_ROLE",
			"outputs": [
				{
					"internalType": "bytes32",
					"name": "",
					"type": "bytes32"
				}
			],
			"stateMutability": "view",
			"type": "function"
		},
		{
			"inputs": [],
			"name": "BASE_URI",
			"outputs": [
				{
					"internalType": "string",
					"name": "",
					"type": "string"
				}
			],
			"stateMutability": "view",
			"type": "function"
		},
		{
			"inputs": [],
			"name": "DEFAULT_ADMIN_ROLE",
			"outputs": [
				{
					"internalType": "bytes32",
					"name": "",
					"type": "bytes32"
				}
			],
			"stateMutability": "view",
			"type": "function"
		},
		{
			"inputs": [],
			"name": "MAX_TOKENS_AMOUNT",
			"outputs": [
				{
					"internalType": "uint256",
					"name": "",
					"type": "uint256"
				}
			],
			"stateMutability": "view",
			"type": "function"
		},
		{
			"inputs": [],
			"name": "TOKEN_PRICE",
			"outputs": [
				{
					"internalType": "uint256",
					"name": "",
					"type": "uint256"
				}
			],
			"stateMutability": "view",
			"type": "function"
		},
		{
			"inputs": [
				{
					"internalType": "address[]",
					"name": "_addresses",
					"type": "address[]"
				}
			],
			"name": "addAirdropAddresses",
			"outputs": [],
			"stateMutability": "nonpayable",
			"type": "function"
		},
		{
			"inputs": [],
			"name": "airdrop",
			"outputs": [],
			"stateMutability": "nonpayable",
			"type": "function"
		},
		{
			"inputs": [
				{
					"internalType": "uint256",
					"name": "",
					"type": "uint256"
				}
			],
			"name": "airdropAddresses",
			"outputs": [
				{
					"internalType": "address",
					"name": "",
					"type": "address"
				}
			],
			"stateMutability": "view",
			"type": "function"
		},
		{
			"inputs": [
				{
					"internalType": "address",
					"name": "to",
					"type": "address"
				},
				{
					"internalType": "uint256",
					"name": "tokenId",
					"type": "uint256"
				}
			],
			"name": "approve",
			"outputs": [],
			"stateMutability": "nonpayable",
			"type": "function"
		},
		{
			"inputs": [
				{
					"internalType": "address",
					"name": "owner",
					"type": "address"
				}
			],
			"name": "balanceOf",
			"outputs": [
				{
					"internalType": "uint256",
					"name": "",
					"type": "uint256"
				}
			],
			"stateMutability": "view",
			"type": "function"
		},
		{
			"inputs": [],
			"name": "developer",
			"outputs": [
				{
					"internalType": "address",
					"name": "",
					"type": "address"
				}
			],
			"stateMutability": "view",
			"type": "function"
		},
		{
			"inputs": [
				{
					"internalType": "uint256",
					"name": "tokenId",
					"type": "uint256"
				}
			],
			"name": "getApproved",
			"outputs": [
				{
					"internalType": "address",
					"name": "",
					"type": "address"
				}
			],
			"stateMutability": "view",
			"type": "function"
		},
		{
			"inputs": [
				{
					"internalType": "bytes32",
					"name": "role",
					"type": "bytes32"
				}
			],
			"name": "getRoleAdmin",
			"outputs": [
				{
					"internalType": "bytes32",
					"name": "",
					"type": "bytes32"
				}
			],
			"stateMutability": "view",
			"type": "function"
		},
		{
			"inputs": [
				{
					"internalType": "bytes32",
					"name": "role",
					"type": "bytes32"
				},
				{
					"internalType": "address",
					"name": "account",
					"type": "address"
				}
			],
			"name": "grantRole",
			"outputs": [],
			"stateMutability": "nonpayable",
			"type": "function"
		},
		{
			"inputs": [
				{
					"internalType": "bytes32",
					"name": "role",
					"type": "bytes32"
				},
				{
					"internalType": "address",
					"name": "account",
					"type": "address"
				}
			],
			"name": "hasRole",
			"outputs": [
				{
					"internalType": "bool",
					"name": "",
					"type": "bool"
				}
			],
			"stateMutability": "view",
			"type": "function"
		},
		{
			"inputs": [
				{
					"internalType": "address",
					"name": "owner",
					"type": "address"
				},
				{
					"internalType": "address",
					"name": "operator",
					"type": "address"
				}
			],
			"name": "isApprovedForAll",
			"outputs": [
				{
					"internalType": "bool",
					"name": "",
					"type": "bool"
				}
			],
			"stateMutability": "view",
			"type": "function"
		},
		{
			"inputs": [],
			"name": "name",
			"outputs": [
				{
					"internalType": "string",
					"name": "",
					"type": "string"
				}
			],
			"stateMutability": "view",
			"type": "function"
		},
		{
			"inputs": [],
			"name": "openSale",
			"outputs": [
				{
					"internalType": "bool",
					"name": "",
					"type": "bool"
				}
			],
			"stateMutability": "view",
			"type": "function"
		},
		{
			"inputs": [],
			"name": "owner",
			"outputs": [
				{
					"internalType": "address",
					"name": "",
					"type": "address"
				}
			],
			"stateMutability": "view",
			"type": "function"
		},
		{
			"inputs": [
				{
					"internalType": "uint256",
					"name": "tokenId",
					"type": "uint256"
				}
			],
			"name": "ownerOf",
			"outputs": [
				{
					"internalType": "address",
					"name": "",
					"type": "address"
				}
			],
			"stateMutability": "view",
			"type": "function"
		},
		{
			"inputs": [],
			"name": "renounceOwnership",
			"outputs": [],
			"stateMutability": "nonpayable",
			"type": "function"
		},
		{
			"inputs": [
				{
					"internalType": "bytes32",
					"name": "role",
					"type": "bytes32"
				},
				{
					"internalType": "address",
					"name": "account",
					"type": "address"
				}
			],
			"name": "renounceRole",
			"outputs": [],
			"stateMutability": "nonpayable",
			"type": "function"
		},
		{
			"inputs": [
				{
					"internalType": "bytes32",
					"name": "role",
					"type": "bytes32"
				},
				{
					"internalType": "address",
					"name": "account",
					"type": "address"
				}
			],
			"name": "revokeRole",
			"outputs": [],
			"stateMutability": "nonpayable",
			"type": "function"
		},
		{
			"inputs": [
				{
					"internalType": "uint256",
					"name": "_id",
					"type": "uint256"
				}
			],
			"name": "safeMintId",
			"outputs": [],
			"stateMutability": "payable",
			"type": "function"
		},
		{
			"inputs": [
				{
					"internalType": "address",
					"name": "from",
					"type": "address"
				},
				{
					"internalType": "address",
					"name": "to",
					"type": "address"
				},
				{
					"internalType": "uint256",
					"name": "tokenId",
					"type": "uint256"
				}
			],
			"name": "safeTransferFrom",
			"outputs": [],
			"stateMutability": "nonpayable",
			"type": "function"
		},
		{
			"inputs": [
				{
					"internalType": "address",
					"name": "from",
					"type": "address"
				},
				{
					"internalType": "address",
					"name": "to",
					"type": "address"
				},
				{
					"internalType": "uint256",
					"name": "tokenId",
					"type": "uint256"
				},
				{
					"internalType": "bytes",
					"name": "_data",
					"type": "bytes"
				}
			],
			"name": "safeTransferFrom",
			"outputs": [],
			"stateMutability": "nonpayable",
			"type": "function"
		},
		{
			"inputs": [
				{
					"internalType": "address",
					"name": "operator",
					"type": "address"
				},
				{
					"internalType": "bool",
					"name": "approved",
					"type": "bool"
				}
			],
			"name": "setApprovalForAll",
			"outputs": [],
			"stateMutability": "nonpayable",
			"type": "function"
		},
		{
			"inputs": [
				{
					"internalType": "string",
					"name": "baseURI",
					"type": "string"
				}
			],
			"name": "setBaseURI",
			"outputs": [],
			"stateMutability": "nonpayable",
			"type": "function"
		},
		{
			"inputs": [],
			"name": "skimAll",
			"outputs": [],
			"stateMutability": "nonpayable",
			"type": "function"
		},
		{
			"inputs": [
				{
					"internalType": "bytes4",
					"name": "interfaceId",
					"type": "bytes4"
				}
			],
			"name": "supportsInterface",
			"outputs": [
				{
					"internalType": "bool",
					"name": "",
					"type": "bool"
				}
			],
			"stateMutability": "view",
			"type": "function"
		},
		{
			"inputs": [],
			"name": "symbol",
			"outputs": [
				{
					"internalType": "string",
					"name": "",
					"type": "string"
				}
			],
			"stateMutability": "view",
			"type": "function"
		},
		{
			"inputs": [],
			"name": "toggleSaleOff",
			"outputs": [],
			"stateMutability": "nonpayable",
			"type": "function"
		},
		{
			"inputs": [],
			"name": "toggleSaleOn",
			"outputs": [],
			"stateMutability": "nonpayable",
			"type": "function"
		},
		{
			"inputs": [
				{
					"internalType": "uint256",
					"name": "index",
					"type": "uint256"
				}
			],
			"name": "tokenByIndex",
			"outputs": [
				{
					"internalType": "uint256",
					"name": "",
					"type": "uint256"
				}
			],
			"stateMutability": "view",
			"type": "function"
		},
		{
			"inputs": [
				{
					"internalType": "address",
					"name": "owner",
					"type": "address"
				},
				{
					"internalType": "uint256",
					"name": "index",
					"type": "uint256"
				}
			],
			"name": "tokenOfOwnerByIndex",
			"outputs": [
				{
					"internalType": "uint256",
					"name": "",
					"type": "uint256"
				}
			],
			"stateMutability": "view",
			"type": "function"
		},
		{
			"inputs": [
				{
					"internalType": "uint256",
					"name": "tokenId",
					"type": "uint256"
				}
			],
			"name": "tokenURI",
			"outputs": [
				{
					"internalType": "string",
					"name": "",
					"type": "string"
				}
			],
			"stateMutability": "view",
			"type": "function"
		},
		{
			"inputs": [],
			"name": "totalSupply",
			"outputs": [
				{
					"internalType": "uint256",
					"name": "",
					"type": "uint256"
				}
			],
			"stateMutability": "view",
			"type": "function"
		},
		{
			"inputs": [
				{
					"internalType": "address",
					"name": "from",
					"type": "address"
				},
				{
					"internalType": "address",
					"name": "to",
					"type": "address"
				},
				{
					"internalType": "uint256",
					"name": "tokenId",
					"type": "uint256"
				}
			],
			"name": "transferFrom",
			"outputs": [],
			"stateMutability": "nonpayable",
			"type": "function"
		},
		{
			"inputs": [
				{
					"internalType": "address",
					"name": "newOwner",
					"type": "address"
				}
			],
			"name": "transferOwnership",
			"outputs": [],
			"stateMutability": "nonpayable",
			"type": "function"
		},
		{
			"inputs": [],
			"name": "viewAirdropAddresses",
			"outputs": [
				{
					"internalType": "address[]",
					"name": "",
					"type": "address[]"
				}
			],
			"stateMutability": "view",
			"type": "function"
		},
		{
			"stateMutability": "payable",
			"type": "receive"
		}
	],
	"bytecode": "0x60a06040526064600c55662386f26fc10000600d55604051806060016040528060368152602001620058b160369139600e9080519060200190620000459291906200039c565b506000600f60006101000a81548160ff0219169083151502179055503480156200006e57600080fd5b50604051620058e7380380620058e78339818101604052810190620000949190620004be565b81818160009080519060200190620000ae9291906200039c565b508060019080519060200190620000c79291906200039c565b505050620000ea620000de6200015b60201b60201c565b6200016360201b60201c565b6200011c7fa49807205ce4d355092ef5a8a18f56e8913cf4a201fbe287825b095693c21775336200022960201b60201c565b3373ffffffffffffffffffffffffffffffffffffffff1660808173ffffffffffffffffffffffffffffffffffffffff1660601b815250505050620006a1565b600033905090565b6000600b60009054906101000a900473ffffffffffffffffffffffffffffffffffffffff16905081600b60006101000a81548173ffffffffffffffffffffffffffffffffffffffff021916908373ffffffffffffffffffffffffffffffffffffffff1602179055508173ffffffffffffffffffffffffffffffffffffffff168173ffffffffffffffffffffffffffffffffffffffff167f8be0079c531659141344cd1fd0a4f28419497f9722a3daafe3b4186f6b6457e060405160405180910390a35050565b6200023b82826200023f60201b60201c565b5050565b6200025182826200033160201b60201c565b6200032d576001600a600084815260200190815260200160002060000160008373ffffffffffffffffffffffffffffffffffffffff1673ffffffffffffffffffffffffffffffffffffffff16815260200190815260200160002060006101000a81548160ff021916908315150217905550620002d26200015b60201b60201c565b73ffffffffffffffffffffffffffffffffffffffff168173ffffffffffffffffffffffffffffffffffffffff16837f2f8788117e7eff1d82e926ec794901d17c78024a50270940304540a733656f0d60405160405180910390a45b5050565b6000600a600084815260200190815260200160002060000160008373ffffffffffffffffffffffffffffffffffffffff1673ffffffffffffffffffffffffffffffffffffffff16815260200190815260200160002060009054906101000a900460ff16905092915050565b828054620003aa90620005c6565b90600052602060002090601f016020900481019282620003ce57600085556200041a565b82601f10620003e957805160ff19168380011785556200041a565b828001600101855582156200041a579182015b8281111562000419578251825591602001919060010190620003fc565b5b5090506200042991906200042d565b5090565b5b80821115620004485760008160009055506001016200042e565b5090565b6000620004636200045d846200055a565b62000531565b9050828152602081018484840111156200047c57600080fd5b6200048984828562000590565b509392505050565b600082601f830112620004a357600080fd5b8151620004b58482602086016200044c565b91505092915050565b60008060408385031215620004d257600080fd5b600083015167ffffffffffffffff811115620004ed57600080fd5b620004fb8582860162000491565b925050602083015167ffffffffffffffff8111156200051957600080fd5b620005278582860162000491565b9150509250929050565b60006200053d62000550565b90506200054b8282620005fc565b919050565b6000604051905090565b600067ffffffffffffffff82111562000578576200057762000661565b5b620005838262000690565b9050602081019050919050565b60005b83811015620005b057808201518184015260208101905062000593565b83811115620005c0576000848401525b50505050565b60006002820490506001821680620005df57607f821691505b60208210811415620005f657620005f562000632565b5b50919050565b620006078262000690565b810181811067ffffffffffffffff8211171562000629576200062862000661565b5b80604052505050565b7f4e487b7100000000000000000000000000000000000000000000000000000000600052602260045260246000fd5b7f4e487b7100000000000000000000000000000000000000000000000000000000600052604160045260246000fd5b6000601f19601f8301169050919050565b60805160601c6151f1620006c0600039600061182401526151f16000f3fe60806040526004361061023f5760003560e01c806370a082311161012e578063b88d4fde116100ab578063d547741f1161006f578063d547741f1461086c578063d99a79b114610895578063dbddb26a146108ac578063e985e9c5146108d7578063f2fde38b1461091457610246565b8063b88d4fde14610799578063bb6d44b7146107c2578063c87b56dd146107d9578063ca4b208b14610816578063d2d8cb671461084157610246565b80638fccf5be116100f25780638fccf5be146106b257806391d14854146106dd57806395d89b411461071a578063a217fddf14610745578063a22cb4651461077057610246565b806370a08231146105dd578063715018a61461061a5780637281d2d21461063157806375b238fc1461065c5780638da5cb5b1461068757610246565b80632f2ff15d116101bc5780634bfeb203116101805780634bfeb203146104fa5780634ca9d7d6146105235780634f6ccce71461053a57806355f804b3146105775780636352211e146105a057610246565b80632f2ff15d1461042b5780632f745c591461045457806336568abe146104915780633884d635146104ba57806342842e0e146104d157610246565b8063167ff46f11610203578063167ff46f1461035357806318160ddd1461037e5780631e34b793146103a957806323b872dd146103c5578063248a9ca3146103ee57610246565b806301ffc9a71461024857806306ca3ab71461028557806306fdde03146102c2578063081812fc146102ed578063095ea7b31461032a57610246565b3661024657005b005b34801561025457600080fd5b5061026f600480360381019061026a9190613aa3565b61093d565b60405161027c91906141aa565b60405180910390f35b34801561029157600080fd5b506102ac60048036038101906102a79190613b36565b61094f565b6040516102b99190614121565b60405180910390f35b3480156102ce57600080fd5b506102d761098e565b6040516102e491906141e0565b60405180910390f35b3480156102f957600080fd5b50610314600480360381019061030f9190613b36565b610a20565b6040516103219190614121565b60405180910390f35b34801561033657600080fd5b50610351600480360381019061034c91906139c1565b610aa5565b005b34801561035f57600080fd5b50610368610bbd565b60405161037591906141aa565b60405180910390f35b34801561038a57600080fd5b50610393610bd0565b6040516103a09190614522565b60405180910390f35b6103c360048036038101906103be9190613b36565b610bdd565b005b3480156103d157600080fd5b506103ec60048036038101906103e791906138bb565b610d1a565b005b3480156103fa57600080fd5b5061041560048036038101906104109190613a3e565b610d7a565b60405161042291906141c5565b60405180910390f35b34801561043757600080fd5b50610452600480360381019061044d9190613a67565b610d9a565b005b34801561046057600080fd5b5061047b600480360381019061047691906139c1565b610dc3565b6040516104889190614522565b60405180910390f35b34801561049d57600080fd5b506104b860048036038101906104b39190613a67565b610e68565b005b3480156104c657600080fd5b506104cf610eeb565b005b3480156104dd57600080fd5b506104f860048036038101906104f391906138bb565b611098565b005b34801561050657600080fd5b50610521600480360381019061051c91906139fd565b6110b8565b005b34801561052f57600080fd5b50610538611105565b005b34801561054657600080fd5b50610561600480360381019061055c9190613b36565b611185565b60405161056e9190614522565b60405180910390f35b34801561058357600080fd5b5061059e60048036038101906105999190613af5565b61121c565b005b3480156105ac57600080fd5b506105c760048036038101906105c29190613b36565b6112ab565b6040516105d49190614121565b60405180910390f35b3480156105e957600080fd5b5061060460048036038101906105ff9190613856565b61135d565b6040516106119190614522565b60405180910390f35b34801561062657600080fd5b5061062f611415565b005b34801561063d57600080fd5b5061064661149d565b6040516106539190614188565b60405180910390f35b34801561066857600080fd5b5061067161152b565b60405161067e91906141c5565b60405180910390f35b34801561069357600080fd5b5061069c61154f565b6040516106a99190614121565b60405180910390f35b3480156106be57600080fd5b506106c7611579565b6040516106d49190614522565b60405180910390f35b3480156106e957600080fd5b5061070460048036038101906106ff9190613a67565b61157f565b60405161071191906141aa565b60405180910390f35b34801561072657600080fd5b5061072f6115ea565b60405161073c91906141e0565b60405180910390f35b34801561075157600080fd5b5061075a61167c565b60405161076791906141c5565b60405180910390f35b34801561077c57600080fd5b5061079760048036038101906107929190613985565b611683565b005b3480156107a557600080fd5b506107c060048036038101906107bb919061390a565b611699565b005b3480156107ce57600080fd5b506107d76116fb565b005b3480156107e557600080fd5b5061080060048036038101906107fb9190613b36565b61177b565b60405161080d91906141e0565b60405180910390f35b34801561082257600080fd5b5061082b611822565b6040516108389190614121565b60405180910390f35b34801561084d57600080fd5b50610856611846565b6040516108639190614522565b60405180910390f35b34801561087857600080fd5b50610893600480360381019061088e9190613a67565b61184c565b005b3480156108a157600080fd5b506108aa611875565b005b3480156108b857600080fd5b506108c16119a9565b6040516108ce91906141e0565b60405180910390f35b3480156108e357600080fd5b506108fe60048036038101906108f9919061387f565b611a37565b60405161090b91906141aa565b60405180910390f35b34801561092057600080fd5b5061093b60048036038101906109369190613856565b611acb565b005b600061094882611bc3565b9050919050565b6010818154811061095f57600080fd5b906000526020600020016000915054906101000a900473ffffffffffffffffffffffffffffffffffffffff1681565b60606000805461099d90614876565b80601f01602080910402602001604051908101604052809291908181526020018280546109c990614876565b8015610a165780601f106109eb57610100808354040283529160200191610a16565b820191906000526020600020905b8154815290600101906020018083116109f957829003601f168201915b5050505050905090565b6000610a2b82611c3d565b610a6a576040517f08c379a0000000000000000000000000000000000000000000000000000000008152600401610a61906143c2565b60405180910390fd5b6004600083815260200190815260200160002060009054906101000a900473ffffffffffffffffffffffffffffffffffffffff169050919050565b6000610ab0826112ab565b90508073ffffffffffffffffffffffffffffffffffffffff168373ffffffffffffffffffffffffffffffffffffffff161415610b21576040517f08c379a0000000000000000000000000000000000000000000000000000000008152600401610b1890614462565b60405180910390fd5b8073ffffffffffffffffffffffffffffffffffffffff16610b40611ca9565b73ffffffffffffffffffffffffffffffffffffffff161480610b6f5750610b6e81610b69611ca9565b611a37565b5b610bae576040517f08c379a0000000000000000000000000000000000000000000000000000000008152600401610ba590614302565b60405180910390fd5b610bb88383611cb1565b505050565b600f60009054906101000a900460ff1681565b6000600880549050905090565b600f60009054906101000a900460ff16610c2c576040517f08c379a0000000000000000000000000000000000000000000000000000000008152600401610c2390614482565b60405180910390fd5b600c54811115610c71576040517f08c379a0000000000000000000000000000000000000000000000000000000008152600401610c68906144e2565b60405180910390fd5b600d543414610cb5576040517f08c379a0000000000000000000000000000000000000000000000000000000008152600401610cac90614402565b60405180910390fd5b600c546001610cc2610bd0565b610ccc9190614677565b1115610d0d576040517f08c379a0000000000000000000000000000000000000000000000000000000008152600401610d0490614382565b60405180910390fd5b610d173382611d6a565b50565b610d2b610d25611ca9565b82611d88565b610d6a576040517f08c379a0000000000000000000000000000000000000000000000000000000008152600401610d61906144a2565b60405180910390fd5b610d75838383611e66565b505050565b6000600a6000838152602001908152602001600020600101549050919050565b610da382610d7a565b610db481610daf611ca9565b6120c2565b610dbe838361215f565b505050565b6000610dce8361135d565b8210610e0f576040517f08c379a0000000000000000000000000000000000000000000000000000000008152600401610e0690614222565b60405180910390fd5b600660008473ffffffffffffffffffffffffffffffffffffffff1673ffffffffffffffffffffffffffffffffffffffff168152602001908152602001600020600083815260200190815260200160002054905092915050565b610e70611ca9565b73ffffffffffffffffffffffffffffffffffffffff168173ffffffffffffffffffffffffffffffffffffffff1614610edd576040517f08c379a0000000000000000000000000000000000000000000000000000000008152600401610ed490614502565b60405180910390fd5b610ee78282612240565b5050565b7fa49807205ce4d355092ef5a8a18f56e8913cf4a201fbe287825b095693c21775610f1d81610f18611ca9565b6120c2565b60005b6001601080549050610f329190614758565b81101561107457610fba60108281548110610f76577f4e487b7100000000000000000000000000000000000000000000000000000000600052603260045260246000fd5b9060005260206000200160009054906101000a900473ffffffffffffffffffffffffffffffffffffffff166001610fab610bd0565b610fb59190614677565b611d6a565b60108181548110610ff4577f4e487b7100000000000000000000000000000000000000000000000000000000600052603260045260246000fd5b9060005260206000200160009054906101000a900473ffffffffffffffffffffffffffffffffffffffff1673ffffffffffffffffffffffffffffffffffffffff167f84b8d6a5d5e1034bc8734d8fff0d20ab52702355d302ba88515a311d8ce0dd7d60405160405180910390a2808061106c906148d9565b915050610f20565b50601060006110839190613524565b60006010805490501461109557600080fd5b50565b6110b383838360405180602001604052806000815250611699565b505050565b7fa49807205ce4d355092ef5a8a18f56e8913cf4a201fbe287825b095693c217756110ea816110e5611ca9565b6120c2565b8160109080519060200190611100929190613545565b505050565b7fa49807205ce4d355092ef5a8a18f56e8913cf4a201fbe287825b095693c2177561113781611132611ca9565b6120c2565b6000600f60006101000a81548160ff021916908315150217905550600015157f750a81729e793d03eedc1b2c940400869f0787027c29f46e7cd3043525e83f3660405160405180910390a250565b600061118f610bd0565b82106111d0576040517f08c379a00000000000000000000000000000000000000000000000000000000081526004016111c7906144c2565b60405180910390fd5b6008828154811061120a577f4e487b7100000000000000000000000000000000000000000000000000000000600052603260045260246000fd5b90600052602060002001549050919050565b7fa49807205ce4d355092ef5a8a18f56e8913cf4a201fbe287825b095693c2177561124e81611249611ca9565b6120c2565b81600e90805190602001906112649291906135cf565b50816040516112739190614097565b60405180910390207f0f465234c22d16316a3c12ebf1ab32e1b027c2b90d3de8290bf2fb27072f9bfc60405160405180910390a25050565b6000806002600084815260200190815260200160002060009054906101000a900473ffffffffffffffffffffffffffffffffffffffff169050600073ffffffffffffffffffffffffffffffffffffffff168173ffffffffffffffffffffffffffffffffffffffff161415611354576040517f08c379a000000000000000000000000000000000000000000000000000000000815260040161134b90614362565b60405180910390fd5b80915050919050565b60008073ffffffffffffffffffffffffffffffffffffffff168273ffffffffffffffffffffffffffffffffffffffff1614156113ce576040517f08c379a00000000000000000000000000000000000000000000000000000000081526004016113c590614322565b60405180910390fd5b600360008373ffffffffffffffffffffffffffffffffffffffff1673ffffffffffffffffffffffffffffffffffffffff168152602001908152602001600020549050919050565b61141d611ca9565b73ffffffffffffffffffffffffffffffffffffffff1661143b61154f565b73ffffffffffffffffffffffffffffffffffffffff1614611491576040517f08c379a0000000000000000000000000000000000000000000000000000000008152600401611488906143e2565b60405180910390fd5b61149b6000612322565b565b6060601080548060200260200160405190810160405280929190818152602001828054801561152157602002820191906000526020600020905b8160009054906101000a900473ffffffffffffffffffffffffffffffffffffffff1673ffffffffffffffffffffffffffffffffffffffff16815260200190600101908083116114d7575b5050505050905090565b7fa49807205ce4d355092ef5a8a18f56e8913cf4a201fbe287825b095693c2177581565b6000600b60009054906101000a900473ffffffffffffffffffffffffffffffffffffffff16905090565b600c5481565b6000600a600084815260200190815260200160002060000160008373ffffffffffffffffffffffffffffffffffffffff1673ffffffffffffffffffffffffffffffffffffffff16815260200190815260200160002060009054906101000a900460ff16905092915050565b6060600180546115f990614876565b80601f016020809104026020016040519081016040528092919081815260200182805461162590614876565b80156116725780601f1061164757610100808354040283529160200191611672565b820191906000526020600020905b81548152906001019060200180831161165557829003601f168201915b5050505050905090565b6000801b81565b61169561168e611ca9565b83836123e8565b5050565b6116aa6116a4611ca9565b83611d88565b6116e9576040517f08c379a00000000000000000000000000000000000000000000000000000000081526004016116e0906144a2565b60405180910390fd5b6116f584848484612555565b50505050565b7fa49807205ce4d355092ef5a8a18f56e8913cf4a201fbe287825b095693c2177561172d81611728611ca9565b6120c2565b6001600f60006101000a81548160ff021916908315150217905550600115157f750a81729e793d03eedc1b2c940400869f0787027c29f46e7cd3043525e83f3660405160405180910390a250565b606061178682611c3d565b6117c5576040517f08c379a00000000000000000000000000000000000000000000000000000000081526004016117bc90614442565b60405180910390fd5b60006117cf6125b1565b905060008151116117ef576040518060200160405280600081525061181a565b806117f984612643565b60405160200161180a9291906140ae565b6040516020818303038152906040525b915050919050565b7f000000000000000000000000000000000000000000000000000000000000000081565b600d5481565b61185582610d7a565b61186681611861611ca9565b6120c2565b6118708383612240565b505050565b7fa49807205ce4d355092ef5a8a18f56e8913cf4a201fbe287825b095693c217756118a7816118a2611ca9565b6120c2565b60006118b161154f565b73ffffffffffffffffffffffffffffffffffffffff16476040516118d4906140d2565b60006040518083038185875af1925050503d8060008114611911576040519150601f19603f3d011682016040523d82523d6000602084013e611916565b606091505b505090508061195a576040517f08c379a000000000000000000000000000000000000000000000000000000000815260040161195190614342565b60405180910390fd5b4761196361154f565b73ffffffffffffffffffffffffffffffffffffffff167fb0477b3d4d588e76d76df1c6cf069311c9dc4f742f19d0f74a70f58803d0768f60405160405180910390a35050565b600e80546119b690614876565b80601f01602080910402602001604051908101604052809291908181526020018280546119e290614876565b8015611a2f5780601f10611a0457610100808354040283529160200191611a2f565b820191906000526020600020905b815481529060010190602001808311611a1257829003601f168201915b505050505081565b6000600560008473ffffffffffffffffffffffffffffffffffffffff1673ffffffffffffffffffffffffffffffffffffffff16815260200190815260200160002060008373ffffffffffffffffffffffffffffffffffffffff1673ffffffffffffffffffffffffffffffffffffffff16815260200190815260200160002060009054906101000a900460ff16905092915050565b611ad3611ca9565b73ffffffffffffffffffffffffffffffffffffffff16611af161154f565b73ffffffffffffffffffffffffffffffffffffffff1614611b47576040517f08c379a0000000000000000000000000000000000000000000000000000000008152600401611b3e906143e2565b60405180910390fd5b600073ffffffffffffffffffffffffffffffffffffffff168173ffffffffffffffffffffffffffffffffffffffff161415611bb7576040517f08c379a0000000000000000000000000000000000000000000000000000000008152600401611bae90614262565b60405180910390fd5b611bc081612322565b50565b60007f7965db0b000000000000000000000000000000000000000000000000000000007bffffffffffffffffffffffffffffffffffffffffffffffffffffffff1916827bffffffffffffffffffffffffffffffffffffffffffffffffffffffff19161480611c365750611c35826127f0565b5b9050919050565b60008073ffffffffffffffffffffffffffffffffffffffff166002600084815260200190815260200160002060009054906101000a900473ffffffffffffffffffffffffffffffffffffffff1673ffffffffffffffffffffffffffffffffffffffff1614159050919050565b600033905090565b816004600083815260200190815260200160002060006101000a81548173ffffffffffffffffffffffffffffffffffffffff021916908373ffffffffffffffffffffffffffffffffffffffff160217905550808273ffffffffffffffffffffffffffffffffffffffff16611d24836112ab565b73ffffffffffffffffffffffffffffffffffffffff167f8c5be1e5ebec7d5bd14f71427d1e84f3dd0314c0f7b2291e5b200ac8c7c3b92560405160405180910390a45050565b611d8482826040518060200160405280600081525061286a565b5050565b6000611d9382611c3d565b611dd2576040517f08c379a0000000000000000000000000000000000000000000000000000000008152600401611dc9906142e2565b60405180910390fd5b6000611ddd836112ab565b90508073ffffffffffffffffffffffffffffffffffffffff168473ffffffffffffffffffffffffffffffffffffffff161480611e4c57508373ffffffffffffffffffffffffffffffffffffffff16611e3484610a20565b73ffffffffffffffffffffffffffffffffffffffff16145b80611e5d5750611e5c8185611a37565b5b91505092915050565b8273ffffffffffffffffffffffffffffffffffffffff16611e86826112ab565b73ffffffffffffffffffffffffffffffffffffffff1614611edc576040517f08c379a0000000000000000000000000000000000000000000000000000000008152600401611ed390614422565b60405180910390fd5b600073ffffffffffffffffffffffffffffffffffffffff168273ffffffffffffffffffffffffffffffffffffffff161415611f4c576040517f08c379a0000000000000000000000000000000000000000000000000000000008152600401611f43906142a2565b60405180910390fd5b611f578383836128c5565b611f62600082611cb1565b6001600360008573ffffffffffffffffffffffffffffffffffffffff1673ffffffffffffffffffffffffffffffffffffffff1681526020019081526020016000206000828254611fb29190614758565b925050819055506001600360008473ffffffffffffffffffffffffffffffffffffffff1673ffffffffffffffffffffffffffffffffffffffff16815260200190815260200160002060008282546120099190614677565b92505081905550816002600083815260200190815260200160002060006101000a81548173ffffffffffffffffffffffffffffffffffffffff021916908373ffffffffffffffffffffffffffffffffffffffff160217905550808273ffffffffffffffffffffffffffffffffffffffff168473ffffffffffffffffffffffffffffffffffffffff167fddf252ad1be2c89b69c2b068fc378daa952ba7f163c4a11628f55a4df523b3ef60405160405180910390a4505050565b6120cc828261157f565b61215b576120f18173ffffffffffffffffffffffffffffffffffffffff1660146128d5565b6120ff8360001c60206128d5565b6040516020016121109291906140e7565b6040516020818303038152906040526040517f08c379a000000000000000000000000000000000000000000000000000000000815260040161215291906141e0565b60405180910390fd5b5050565b612169828261157f565b61223c576001600a600084815260200190815260200160002060000160008373ffffffffffffffffffffffffffffffffffffffff1673ffffffffffffffffffffffffffffffffffffffff16815260200190815260200160002060006101000a81548160ff0219169083151502179055506121e1611ca9565b73ffffffffffffffffffffffffffffffffffffffff168173ffffffffffffffffffffffffffffffffffffffff16837f2f8788117e7eff1d82e926ec794901d17c78024a50270940304540a733656f0d60405160405180910390a45b5050565b61224a828261157f565b1561231e576000600a600084815260200190815260200160002060000160008373ffffffffffffffffffffffffffffffffffffffff1673ffffffffffffffffffffffffffffffffffffffff16815260200190815260200160002060006101000a81548160ff0219169083151502179055506122c3611ca9565b73ffffffffffffffffffffffffffffffffffffffff168173ffffffffffffffffffffffffffffffffffffffff16837ff6391f5c32d9c69d2a47ea670b442974b53935d1edc7fd64eb21e047a839171b60405160405180910390a45b5050565b6000600b60009054906101000a900473ffffffffffffffffffffffffffffffffffffffff16905081600b60006101000a81548173ffffffffffffffffffffffffffffffffffffffff021916908373ffffffffffffffffffffffffffffffffffffffff1602179055508173ffffffffffffffffffffffffffffffffffffffff168173ffffffffffffffffffffffffffffffffffffffff167f8be0079c531659141344cd1fd0a4f28419497f9722a3daafe3b4186f6b6457e060405160405180910390a35050565b8173ffffffffffffffffffffffffffffffffffffffff168373ffffffffffffffffffffffffffffffffffffffff161415612457576040517f08c379a000000000000000000000000000000000000000000000000000000000815260040161244e906142c2565b60405180910390fd5b80600560008573ffffffffffffffffffffffffffffffffffffffff1673ffffffffffffffffffffffffffffffffffffffff16815260200190815260200160002060008473ffffffffffffffffffffffffffffffffffffffff1673ffffffffffffffffffffffffffffffffffffffff16815260200190815260200160002060006101000a81548160ff0219169083151502179055508173ffffffffffffffffffffffffffffffffffffffff168373ffffffffffffffffffffffffffffffffffffffff167f17307eab39ab6107e8899845ad3d59bd9653f200f220920489ca2b5937696c318360405161254891906141aa565b60405180910390a3505050565b612560848484611e66565b61256c84848484612bcf565b6125ab576040517f08c379a00000000000000000000000000000000000000000000000000000000081526004016125a290614242565b60405180910390fd5b50505050565b6060600e80546125c090614876565b80601f01602080910402602001604051908101604052809291908181526020018280546125ec90614876565b80156126395780601f1061260e57610100808354040283529160200191612639565b820191906000526020600020905b81548152906001019060200180831161261c57829003601f168201915b5050505050905090565b6060600082141561268b576040518060400160405280600181526020017f300000000000000000000000000000000000000000000000000000000000000081525090506127eb565b600082905060005b600082146126bd5780806126a6906148d9565b915050600a826126b691906146cd565b9150612693565b60008167ffffffffffffffff8111156126ff577f4e487b7100000000000000000000000000000000000000000000000000000000600052604160045260246000fd5b6040519080825280601f01601f1916602001820160405280156127315781602001600182028036833780820191505090505b5090505b600085146127e45760018261274a9190614758565b9150600a856127599190614922565b60306127659190614677565b60f81b8183815181106127a1577f4e487b7100000000000000000000000000000000000000000000000000000000600052603260045260246000fd5b60200101907effffffffffffffffffffffffffffffffffffffffffffffffffffffffffffff1916908160001a905350600a856127dd91906146cd565b9450612735565b8093505050505b919050565b60007f780e9d63000000000000000000000000000000000000000000000000000000007bffffffffffffffffffffffffffffffffffffffffffffffffffffffff1916827bffffffffffffffffffffffffffffffffffffffffffffffffffffffff19161480612863575061286282612d66565b5b9050919050565b6128748383612e48565b6128816000848484612bcf565b6128c0576040517f08c379a00000000000000000000000000000000000000000000000000000000081526004016128b790614242565b60405180910390fd5b505050565b6128d0838383613016565b505050565b6060600060028360026128e891906146fe565b6128f29190614677565b67ffffffffffffffff811115612931577f4e487b7100000000000000000000000000000000000000000000000000000000600052604160045260246000fd5b6040519080825280601f01601f1916602001820160405280156129635781602001600182028036833780820191505090505b5090507f3000000000000000000000000000000000000000000000000000000000000000816000815181106129c1577f4e487b7100000000000000000000000000000000000000000000000000000000600052603260045260246000fd5b60200101907effffffffffffffffffffffffffffffffffffffffffffffffffffffffffffff1916908160001a9053507f780000000000000000000000000000000000000000000000000000000000000081600181518110612a4b577f4e487b7100000000000000000000000000000000000000000000000000000000600052603260045260246000fd5b60200101907effffffffffffffffffffffffffffffffffffffffffffffffffffffffffffff1916908160001a90535060006001846002612a8b91906146fe565b612a959190614677565b90505b6001811115612b81577f3031323334353637383961626364656600000000000000000000000000000000600f861660108110612afd577f4e487b7100000000000000000000000000000000000000000000000000000000600052603260045260246000fd5b1a60f81b828281518110612b3a577f4e487b7100000000000000000000000000000000000000000000000000000000600052603260045260246000fd5b60200101907effffffffffffffffffffffffffffffffffffffffffffffffffffffffffffff1916908160001a905350600485901c945080612b7a9061484c565b9050612a98565b5060008414612bc5576040517f08c379a0000000000000000000000000000000000000000000000000000000008152600401612bbc90614202565b60405180910390fd5b8091505092915050565b6000612bf08473ffffffffffffffffffffffffffffffffffffffff1661312a565b15612d59578373ffffffffffffffffffffffffffffffffffffffff1663150b7a02612c19611ca9565b8786866040518563ffffffff1660e01b8152600401612c3b949392919061413c565b602060405180830381600087803b158015612c5557600080fd5b505af1925050508015612c8657506040513d601f19601f82011682018060405250810190612c839190613acc565b60015b612d09573d8060008114612cb6576040519150601f19603f3d011682016040523d82523d6000602084013e612cbb565b606091505b50600081511415612d01576040517f08c379a0000000000000000000000000000000000000000000000000000000008152600401612cf890614242565b60405180910390fd5b805181602001fd5b63150b7a0260e01b7bffffffffffffffffffffffffffffffffffffffffffffffffffffffff1916817bffffffffffffffffffffffffffffffffffffffffffffffffffffffff191614915050612d5e565b600190505b949350505050565b60007f80ac58cd000000000000000000000000000000000000000000000000000000007bffffffffffffffffffffffffffffffffffffffffffffffffffffffff1916827bffffffffffffffffffffffffffffffffffffffffffffffffffffffff19161480612e3157507f5b5e139f000000000000000000000000000000000000000000000000000000007bffffffffffffffffffffffffffffffffffffffffffffffffffffffff1916827bffffffffffffffffffffffffffffffffffffffffffffffffffffffff1916145b80612e415750612e408261313d565b5b9050919050565b600073ffffffffffffffffffffffffffffffffffffffff168273ffffffffffffffffffffffffffffffffffffffff161415612eb8576040517f08c379a0000000000000000000000000000000000000000000000000000000008152600401612eaf906143a2565b60405180910390fd5b612ec181611c3d565b15612f01576040517f08c379a0000000000000000000000000000000000000000000000000000000008152600401612ef890614282565b60405180910390fd5b612f0d600083836128c5565b6001600360008473ffffffffffffffffffffffffffffffffffffffff1673ffffffffffffffffffffffffffffffffffffffff1681526020019081526020016000206000828254612f5d9190614677565b92505081905550816002600083815260200190815260200160002060006101000a81548173ffffffffffffffffffffffffffffffffffffffff021916908373ffffffffffffffffffffffffffffffffffffffff160217905550808273ffffffffffffffffffffffffffffffffffffffff16600073ffffffffffffffffffffffffffffffffffffffff167fddf252ad1be2c89b69c2b068fc378daa952ba7f163c4a11628f55a4df523b3ef60405160405180910390a45050565b6130218383836131a7565b600073ffffffffffffffffffffffffffffffffffffffff168373ffffffffffffffffffffffffffffffffffffffff1614156130645761305f816131ac565b6130a3565b8173ffffffffffffffffffffffffffffffffffffffff168373ffffffffffffffffffffffffffffffffffffffff16146130a2576130a183826131f5565b5b5b600073ffffffffffffffffffffffffffffffffffffffff168273ffffffffffffffffffffffffffffffffffffffff1614156130e6576130e181613362565b613125565b8273ffffffffffffffffffffffffffffffffffffffff168273ffffffffffffffffffffffffffffffffffffffff16146131245761312382826134a5565b5b5b505050565b600080823b905060008111915050919050565b60007f01ffc9a7000000000000000000000000000000000000000000000000000000007bffffffffffffffffffffffffffffffffffffffffffffffffffffffff1916827bffffffffffffffffffffffffffffffffffffffffffffffffffffffff1916149050919050565b505050565b6008805490506009600083815260200190815260200160002081905550600881908060018154018082558091505060019003906000526020600020016000909190919091505550565b600060016132028461135d565b61320c9190614758565b90506000600760008481526020019081526020016000205490508181146132f1576000600660008673ffffffffffffffffffffffffffffffffffffffff1673ffffffffffffffffffffffffffffffffffffffff168152602001908152602001600020600084815260200190815260200160002054905080600660008773ffffffffffffffffffffffffffffffffffffffff1673ffffffffffffffffffffffffffffffffffffffff168152602001908152602001600020600084815260200190815260200160002081905550816007600083815260200190815260200160002081905550505b6007600084815260200190815260200160002060009055600660008573ffffffffffffffffffffffffffffffffffffffff1673ffffffffffffffffffffffffffffffffffffffff16815260200190815260200160002060008381526020019081526020016000206000905550505050565b600060016008805490506133769190614758565b90506000600960008481526020019081526020016000205490506000600883815481106133cc577f4e487b7100000000000000000000000000000000000000000000000000000000600052603260045260246000fd5b906000526020600020015490508060088381548110613414577f4e487b7100000000000000000000000000000000000000000000000000000000600052603260045260246000fd5b906000526020600020018190555081600960008381526020019081526020016000208190555060096000858152602001908152602001600020600090556008805480613489577f4e487b7100000000000000000000000000000000000000000000000000000000600052603160045260246000fd5b6001900381819060005260206000200160009055905550505050565b60006134b08361135d565b905081600660008573ffffffffffffffffffffffffffffffffffffffff1673ffffffffffffffffffffffffffffffffffffffff168152602001908152602001600020600083815260200190815260200160002081905550806007600084815260200190815260200160002081905550505050565b50805460008255906000526020600020908101906135429190613655565b50565b8280548282559060005260206000209081019282156135be579160200282015b828111156135bd5782518260006101000a81548173ffffffffffffffffffffffffffffffffffffffff021916908373ffffffffffffffffffffffffffffffffffffffff16021790555091602001919060010190613565565b5b5090506135cb9190613655565b5090565b8280546135db90614876565b90600052602060002090601f0160209004810192826135fd5760008555613644565b82601f1061361657805160ff1916838001178555613644565b82800160010185558215613644579182015b82811115613643578251825591602001919060010190613628565b5b5090506136519190613655565b5090565b5b8082111561366e576000816000905550600101613656565b5090565b600061368561368084614562565b61453d565b905080838252602082019050828560208602820111156136a457600080fd5b60005b858110156136d457816136ba888261375a565b8452602084019350602083019250506001810190506136a7565b5050509392505050565b60006136f16136ec8461458e565b61453d565b90508281526020810184848401111561370957600080fd5b61371484828561480a565b509392505050565b600061372f61372a846145bf565b61453d565b90508281526020810184848401111561374757600080fd5b61375284828561480a565b509392505050565b60008135905061376981615148565b92915050565b600082601f83011261378057600080fd5b8135613790848260208601613672565b91505092915050565b6000813590506137a88161515f565b92915050565b6000813590506137bd81615176565b92915050565b6000813590506137d28161518d565b92915050565b6000815190506137e78161518d565b92915050565b600082601f8301126137fe57600080fd5b813561380e8482602086016136de565b91505092915050565b600082601f83011261382857600080fd5b813561383884826020860161371c565b91505092915050565b600081359050613850816151a4565b92915050565b60006020828403121561386857600080fd5b60006138768482850161375a565b91505092915050565b6000806040838503121561389257600080fd5b60006138a08582860161375a565b92505060206138b18582860161375a565b9150509250929050565b6000806000606084860312156138d057600080fd5b60006138de8682870161375a565b93505060206138ef8682870161375a565b925050604061390086828701613841565b9150509250925092565b6000806000806080858703121561392057600080fd5b600061392e8782880161375a565b945050602061393f8782880161375a565b935050604061395087828801613841565b925050606085013567ffffffffffffffff81111561396d57600080fd5b613979878288016137ed565b91505092959194509250565b6000806040838503121561399857600080fd5b60006139a68582860161375a565b92505060206139b785828601613799565b9150509250929050565b600080604083850312156139d457600080fd5b60006139e28582860161375a565b92505060206139f385828601613841565b9150509250929050565b600060208284031215613a0f57600080fd5b600082013567ffffffffffffffff811115613a2957600080fd5b613a358482850161376f565b91505092915050565b600060208284031215613a5057600080fd5b6000613a5e848285016137ae565b91505092915050565b60008060408385031215613a7a57600080fd5b6000613a88858286016137ae565b9250506020613a998582860161375a565b9150509250929050565b600060208284031215613ab557600080fd5b6000613ac3848285016137c3565b91505092915050565b600060208284031215613ade57600080fd5b6000613aec848285016137d8565b91505092915050565b600060208284031215613b0757600080fd5b600082013567ffffffffffffffff811115613b2157600080fd5b613b2d84828501613817565b91505092915050565b600060208284031215613b4857600080fd5b6000613b5684828501613841565b91505092915050565b6000613b6b8383613b77565b60208301905092915050565b613b808161478c565b82525050565b613b8f8161478c565b82525050565b6000613ba082614600565b613baa818561462e565b9350613bb5836145f0565b8060005b83811015613be6578151613bcd8882613b5f565b9750613bd883614621565b925050600181019050613bb9565b5085935050505092915050565b613bfc8161479e565b82525050565b613c0b816147aa565b82525050565b6000613c1c8261460b565b613c26818561463f565b9350613c36818560208601614819565b613c3f81614a0f565b840191505092915050565b6000613c5582614616565b613c5f818561465b565b9350613c6f818560208601614819565b613c7881614a0f565b840191505092915050565b6000613c8e82614616565b613c98818561466c565b9350613ca8818560208601614819565b80840191505092915050565b6000613cc160208361465b565b9150613ccc82614a20565b602082019050919050565b6000613ce4602b8361465b565b9150613cef82614a49565b604082019050919050565b6000613d0760328361465b565b9150613d1282614a98565b604082019050919050565b6000613d2a60268361465b565b9150613d3582614ae7565b604082019050919050565b6000613d4d601c8361465b565b9150613d5882614b36565b602082019050919050565b6000613d7060248361465b565b9150613d7b82614b5f565b604082019050919050565b6000613d9360198361465b565b9150613d9e82614bae565b602082019050919050565b6000613db6602c8361465b565b9150613dc182614bd7565b604082019050919050565b6000613dd960388361465b565b9150613de482614c26565b604082019050919050565b6000613dfc602a8361465b565b9150613e0782614c75565b604082019050919050565b6000613e1f602f8361465b565b9150613e2a82614cc4565b604082019050919050565b6000613e4260298361465b565b9150613e4d82614d13565b604082019050919050565b6000613e6560368361465b565b9150613e7082614d62565b604082019050919050565b6000613e8860208361465b565b9150613e9382614db1565b602082019050919050565b6000613eab602c8361465b565b9150613eb682614dda565b604082019050919050565b6000613ece60208361465b565b9150613ed982614e29565b602082019050919050565b6000613ef160408361465b565b9150613efc82614e52565b604082019050919050565b6000613f1460298361465b565b9150613f1f82614ea1565b604082019050919050565b6000613f37602f8361465b565b9150613f4282614ef0565b604082019050919050565b6000613f5a60218361465b565b9150613f6582614f3f565b604082019050919050565b6000613f7d600083614650565b9150613f8882614f8e565b600082019050919050565b6000613fa0601b8361465b565b9150613fab82614f91565b602082019050919050565b6000613fc360318361465b565b9150613fce82614fba565b604082019050919050565b6000613fe6602c8361465b565b9150613ff182615009565b604082019050919050565b600061400960178361466c565b915061401482615058565b601782019050919050565b600061402c60348361465b565b915061403782615081565b604082019050919050565b600061404f60118361466c565b915061405a826150d0565b601182019050919050565b6000614072602f8361465b565b915061407d826150f9565b604082019050919050565b61409181614800565b82525050565b60006140a38284613c83565b915081905092915050565b60006140ba8285613c83565b91506140c68284613c83565b91508190509392505050565b60006140dd82613f70565b9150819050919050565b60006140f282613ffc565b91506140fe8285613c83565b915061410982614042565b91506141158284613c83565b91508190509392505050565b60006020820190506141366000830184613b86565b92915050565b60006080820190506141516000830187613b86565b61415e6020830186613b86565b61416b6040830185614088565b818103606083015261417d8184613c11565b905095945050505050565b600060208201905081810360008301526141a28184613b95565b905092915050565b60006020820190506141bf6000830184613bf3565b92915050565b60006020820190506141da6000830184613c02565b92915050565b600060208201905081810360008301526141fa8184613c4a565b905092915050565b6000602082019050818103600083015261421b81613cb4565b9050919050565b6000602082019050818103600083015261423b81613cd7565b9050919050565b6000602082019050818103600083015261425b81613cfa565b9050919050565b6000602082019050818103600083015261427b81613d1d565b9050919050565b6000602082019050818103600083015261429b81613d40565b9050919050565b600060208201905081810360008301526142bb81613d63565b9050919050565b600060208201905081810360008301526142db81613d86565b9050919050565b600060208201905081810360008301526142fb81613da9565b9050919050565b6000602082019050818103600083015261431b81613dcc565b9050919050565b6000602082019050818103600083015261433b81613def565b9050919050565b6000602082019050818103600083015261435b81613e12565b9050919050565b6000602082019050818103600083015261437b81613e35565b9050919050565b6000602082019050818103600083015261439b81613e58565b9050919050565b600060208201905081810360008301526143bb81613e7b565b9050919050565b600060208201905081810360008301526143db81613e9e565b9050919050565b600060208201905081810360008301526143fb81613ec1565b9050919050565b6000602082019050818103600083015261441b81613ee4565b9050919050565b6000602082019050818103600083015261443b81613f07565b9050919050565b6000602082019050818103600083015261445b81613f2a565b9050919050565b6000602082019050818103600083015261447b81613f4d565b9050919050565b6000602082019050818103600083015261449b81613f93565b9050919050565b600060208201905081810360008301526144bb81613fb6565b9050919050565b600060208201905081810360008301526144db81613fd9565b9050919050565b600060208201905081810360008301526144fb8161401f565b9050919050565b6000602082019050818103600083015261451b81614065565b9050919050565b60006020820190506145376000830184614088565b92915050565b6000614547614558565b905061455382826148a8565b919050565b6000604051905090565b600067ffffffffffffffff82111561457d5761457c6149e0565b5b602082029050602081019050919050565b600067ffffffffffffffff8211156145a9576145a86149e0565b5b6145b282614a0f565b9050602081019050919050565b600067ffffffffffffffff8211156145da576145d96149e0565b5b6145e382614a0f565b9050602081019050919050565b6000819050602082019050919050565b600081519050919050565b600081519050919050565b600081519050919050565b6000602082019050919050565b600082825260208201905092915050565b600082825260208201905092915050565b600081905092915050565b600082825260208201905092915050565b600081905092915050565b600061468282614800565b915061468d83614800565b9250827fffffffffffffffffffffffffffffffffffffffffffffffffffffffffffffffff038211156146c2576146c1614953565b5b828201905092915050565b60006146d882614800565b91506146e383614800565b9250826146f3576146f2614982565b5b828204905092915050565b600061470982614800565b915061471483614800565b9250817fffffffffffffffffffffffffffffffffffffffffffffffffffffffffffffffff048311821515161561474d5761474c614953565b5b828202905092915050565b600061476382614800565b915061476e83614800565b92508282101561478157614780614953565b5b828203905092915050565b6000614797826147e0565b9050919050565b60008115159050919050565b6000819050919050565b60007fffffffff0000000000000000000000000000000000000000000000000000000082169050919050565b600073ffffffffffffffffffffffffffffffffffffffff82169050919050565b6000819050919050565b82818337600083830152505050565b60005b8381101561483757808201518184015260208101905061481c565b83811115614846576000848401525b50505050565b600061485782614800565b9150600082141561486b5761486a614953565b5b600182039050919050565b6000600282049050600182168061488e57607f821691505b602082108114156148a2576148a16149b1565b5b50919050565b6148b182614a0f565b810181811067ffffffffffffffff821117156148d0576148cf6149e0565b5b80604052505050565b60006148e482614800565b91507fffffffffffffffffffffffffffffffffffffffffffffffffffffffffffffffff82141561491757614916614953565b5b600182019050919050565b600061492d82614800565b915061493883614800565b92508261494857614947614982565b5b828206905092915050565b7f4e487b7100000000000000000000000000000000000000000000000000000000600052601160045260246000fd5b7f4e487b7100000000000000000000000000000000000000000000000000000000600052601260045260246000fd5b7f4e487b7100000000000000000000000000000000000000000000000000000000600052602260045260246000fd5b7f4e487b7100000000000000000000000000000000000000000000000000000000600052604160045260246000fd5b6000601f19601f8301169050919050565b7f537472696e67733a20686578206c656e67746820696e73756666696369656e74600082015250565b7f455243373231456e756d657261626c653a206f776e657220696e646578206f7560008201527f74206f6620626f756e6473000000000000000000000000000000000000000000602082015250565b7f4552433732313a207472616e7366657220746f206e6f6e20455243373231526560008201527f63656976657220696d706c656d656e7465720000000000000000000000000000602082015250565b7f4f776e61626c653a206e6577206f776e657220697320746865207a65726f206160008201527f6464726573730000000000000000000000000000000000000000000000000000602082015250565b7f4552433732313a20746f6b656e20616c7265616479206d696e74656400000000600082015250565b7f4552433732313a207472616e7366657220746f20746865207a65726f2061646460008201527f7265737300000000000000000000000000000000000000000000000000000000602082015250565b7f4552433732313a20617070726f766520746f2063616c6c657200000000000000600082015250565b7f4552433732313a206f70657261746f7220717565727920666f72206e6f6e657860008201527f697374656e7420746f6b656e0000000000000000000000000000000000000000602082015250565b7f4552433732313a20617070726f76652063616c6c6572206973206e6f74206f7760008201527f6e6572206e6f7220617070726f76656420666f7220616c6c0000000000000000602082015250565b7f4552433732313a2062616c616e636520717565727920666f7220746865207a6560008201527f726f206164647265737300000000000000000000000000000000000000000000602082015250565b7f436f6c6c656374696f6e3a20776974686472617746756e64733a3a205472616e60008201527f73616374696f6e204661696c6564210000000000000000000000000000000000602082015250565b7f4552433732313a206f776e657220717565727920666f72206e6f6e657869737460008201527f656e7420746f6b656e0000000000000000000000000000000000000000000000602082015250565b7f436f6c6c656374696f6e3a20736166654d696e7449643a3a204578636565646960008201527f6e6720746f74616c20737570706c79206c696d69742100000000000000000000602082015250565b7f4552433732313a206d696e7420746f20746865207a65726f2061646472657373600082015250565b7f4552433732313a20617070726f76656420717565727920666f72206e6f6e657860008201527f697374656e7420746f6b656e0000000000000000000000000000000000000000602082015250565b7f4f776e61626c653a2063616c6c6572206973206e6f7420746865206f776e6572600082015250565b7f436f6c6c656374696f6e3a20736166654d696e7449643a3a20506c656173652060008201527f73656e642074686520726967687420616d6f756e74206f6620746f6b656e7321602082015250565b7f4552433732313a207472616e73666572206f6620746f6b656e2074686174206960008201527f73206e6f74206f776e0000000000000000000000000000000000000000000000602082015250565b7f4552433732314d657461646174613a2055524920717565727920666f72206e6f60008201527f6e6578697374656e7420746f6b656e0000000000000000000000000000000000602082015250565b7f4552433732313a20617070726f76616c20746f2063757272656e74206f776e6560008201527f7200000000000000000000000000000000000000000000000000000000000000602082015250565b50565b7f436f6c6c656374696f6e3a2053616c6520697320636c6f736564210000000000600082015250565b7f4552433732313a207472616e736665722063616c6c6572206973206e6f74206f60008201527f776e6572206e6f7220617070726f766564000000000000000000000000000000602082015250565b7f455243373231456e756d657261626c653a20676c6f62616c20696e646578206f60008201527f7574206f6620626f756e64730000000000000000000000000000000000000000602082015250565b7f416363657373436f6e74726f6c3a206163636f756e7420000000000000000000600082015250565b7f436f6c6c656374696f6e3a20736166654d696e7449643a3a4d696e7420746f6b60008201527f656e20494420746f6f2061626f7665206d696e74000000000000000000000000602082015250565b7f206973206d697373696e6720726f6c6520000000000000000000000000000000600082015250565b7f416363657373436f6e74726f6c3a2063616e206f6e6c792072656e6f756e636560008201527f20726f6c657320666f722073656c660000000000000000000000000000000000602082015250565b6151518161478c565b811461515c57600080fd5b50565b6151688161479e565b811461517357600080fd5b50565b61517f816147aa565b811461518a57600080fd5b50565b615196816147b4565b81146151a157600080fd5b50565b6151ad81614800565b81146151b857600080fd5b5056fea264697066735822122033bd732d6e37a5c222776ccf8ae5cdeb734a4c441e3edde84b98ba2c584964fa64736f6c63430008040033697066733a2f2f516d576b6b447745747152786e53667262506671565a6d34667474754b5933477576784a71736444324653436a6e2f",
	"linkReferences": {},
	"deployedLinkReferences": {}
}