{
	"_format": "hh-sol-artifact-1",
	"contractName": "QuasiMesh",
	"sourceName": "contracts/QuasiRandomERC721.sol",
	"abi": [
		{
			"inputs": [],
			"stateMutability": "nonpayable",
			"type": "constructor"
		},
		{
			"anonymous": false,
			"inputs": [
				{
					"indexed": true,
					"internalType": "address",
					"name": "owner",
					"type": "address"
				},
				{
					"indexed": true,
					"internalType": "address",
					"name": "approved",
					"type": "address"
				},
				{
					"indexed": true,
					"internalType": "uint256",
					"name": "tokenId",
					"type": "uint256"
				}
			],
			"name": "Approval",
			"type": "event"
		},
		{
			"anonymous": false,
			"inputs": [
				{
					"indexed": true,
					"internalType": "address",
					"name": "owner",
					"type": "address"
				},
				{
					"indexed": true,
					"internalType": "address",
					"name": "operator",
					"type": "address"
				},
				{
					"indexed": false,
					"internalType": "bool",
					"name": "approved",
					"type": "bool"
				}
			],
			"name": "ApprovalForAll",
			"type": "event"
		},
		{
			"anonymous": false,
			"inputs": [
				{
					"indexed": true,
					"internalType": "address",
					"name": "previousOwner",
					"type": "address"
				},
				{
					"indexed": true,
					"internalType": "address",
					"name": "newOwner",
					"type": "address"
				}
			],
			"name": "OwnershipTransferred",
			"type": "event"
		},
		{
			"anonymous": false,
			"inputs": [
				{
					"indexed": true,
					"internalType": "address",
					"name": "account",
					"type": "address"
				},
				{
					"indexed": true,
					"internalType": "uint256",
					"name": "amount",
					"type": "uint256"
				}
			],
			"name": "Skimmed",
			"type": "event"
		},
		{
			"anonymous": false,
			"inputs": [
				{
					"indexed": true,
					"internalType": "address",
					"name": "from",
					"type": "address"
				},
				{
					"indexed": true,
					"internalType": "address",
					"name": "to",
					"type": "address"
				},
				{
					"indexed": true,
					"internalType": "uint256",
					"name": "tokenId",
					"type": "uint256"
				}
			],
			"name": "Transfer",
			"type": "event"
		},
		{
			"inputs": [
				{
					"internalType": "address",
					"name": "to",
					"type": "address"
				},
				{
					"internalType": "uint256",
					"name": "tokenId",
					"type": "uint256"
				}
			],
			"name": "approve",
			"outputs": [],
			"stateMutability": "nonpayable",
			"type": "function"
		},
		{
			"inputs": [
				{
					"internalType": "address",
					"name": "owner",
					"type": "address"
				}
			],
			"name": "balanceOf",
			"outputs": [
				{
					"internalType": "uint256",
					"name": "",
					"type": "uint256"
				}
			],
			"stateMutability": "view",
			"type": "function"
		},
		{
			"inputs": [
				{
					"internalType": "uint256",
					"name": "_newPrice",
					"type": "uint256"
				}
			],
			"name": "changePrice",
			"outputs": [],
			"stateMutability": "nonpayable",
			"type": "function"
		},
		{
			"inputs": [],
			"name": "getAllNfts",
			"outputs": [
				{
					"components": [
						{
							"internalType": "uint256",
							"name": "id",
							"type": "uint256"
						},
						{
							"internalType": "address",
							"name": "owner",
							"type": "address"
						},
						{
							"internalType": "string",
							"name": "uri",
							"type": "string"
						}
					],
					"internalType": "struct QuasiMesh.Info[]",
					"name": "",
					"type": "tuple[]"
				}
			],
			"stateMutability": "view",
			"type": "function"
		},
		{
			"inputs": [
				{
					"internalType": "uint256",
					"name": "tokenId",
					"type": "uint256"
				}
			],
			"name": "getApproved",
			"outputs": [
				{
					"internalType": "address",
					"name": "",
					"type": "address"
				}
			],
			"stateMutability": "view",
			"type": "function"
		},
		{
			"inputs": [
				{
					"internalType": "address",
					"name": "owner",
					"type": "address"
				},
				{
					"internalType": "address",
					"name": "operator",
					"type": "address"
				}
			],
			"name": "isApprovedForAll",
			"outputs": [
				{
					"internalType": "bool",
					"name": "",
					"type": "bool"
				}
			],
			"stateMutability": "view",
			"type": "function"
		},
		{
			"inputs": [],
			"name": "maxMintTokens",
			"outputs": [
				{
					"internalType": "uint256",
					"name": "",
					"type": "uint256"
				}
			],
			"stateMutability": "view",
			"type": "function"
		},
		{
			"inputs": [
				{
					"internalType": "address",
					"name": "_to",
					"type": "address"
				},
				{
					"internalType": "uint256",
					"name": "_amount",
					"type": "uint256"
				}
			],
			"name": "mintToken",
			"outputs": [],
			"stateMutability": "payable",
			"type": "function"
		},
		{
			"inputs": [],
			"name": "name",
			"outputs": [
				{
					"internalType": "string",
					"name": "",
					"type": "string"
				}
			],
			"stateMutability": "view",
			"type": "function"
		},
		{
			"inputs": [],
			"name": "owner",
			"outputs": [
				{
					"internalType": "address",
					"name": "",
					"type": "address"
				}
			],
			"stateMutability": "view",
			"type": "function"
		},
		{
			"inputs": [
				{
					"internalType": "uint256",
					"name": "tokenId",
					"type": "uint256"
				}
			],
			"name": "ownerOf",
			"outputs": [
				{
					"internalType": "address",
					"name": "",
					"type": "address"
				}
			],
			"stateMutability": "view",
			"type": "function"
		},
		{
			"inputs": [],
			"name": "price",
			"outputs": [
				{
					"internalType": "uint256",
					"name": "",
					"type": "uint256"
				}
			],
			"stateMutability": "view",
			"type": "function"
		},
		{
			"inputs": [],
			"name": "renounceOwnership",
			"outputs": [],
			"stateMutability": "nonpayable",
			"type": "function"
		},
		{
			"inputs": [
				{
					"internalType": "address",
					"name": "from",
					"type": "address"
				},
				{
					"internalType": "address",
					"name": "to",
					"type": "address"
				},
				{
					"internalType": "uint256",
					"name": "tokenId",
					"type": "uint256"
				}
			],
			"name": "safeTransferFrom",
			"outputs": [],
			"stateMutability": "nonpayable",
			"type": "function"
		},
		{
			"inputs": [
				{
					"internalType": "address",
					"name": "from",
					"type": "address"
				},
				{
					"internalType": "address",
					"name": "to",
					"type": "address"
				},
				{
					"internalType": "uint256",
					"name": "tokenId",
					"type": "uint256"
				},
				{
					"internalType": "bytes",
					"name": "_data",
					"type": "bytes"
				}
			],
			"name": "safeTransferFrom",
			"outputs": [],
			"stateMutability": "nonpayable",
			"type": "function"
		},
		{
			"inputs": [
				{
					"internalType": "address",
					"name": "operator",
					"type": "address"
				},
				{
					"internalType": "bool",
					"name": "approved",
					"type": "bool"
				}
			],
			"name": "setApprovalForAll",
			"outputs": [],
			"stateMutability": "nonpayable",
			"type": "function"
		},
		{
			"inputs": [],
			"name": "skim",
			"outputs": [],
			"stateMutability": "nonpayable",
			"type": "function"
		},
		{
			"inputs": [
				{
					"internalType": "bytes4",
					"name": "interfaceId",
					"type": "bytes4"
				}
			],
			"name": "supportsInterface",
			"outputs": [
				{
					"internalType": "bool",
					"name": "",
					"type": "bool"
				}
			],
			"stateMutability": "view",
			"type": "function"
		},
		{
			"inputs": [],
			"name": "symbol",
			"outputs": [
				{
					"internalType": "string",
					"name": "",
					"type": "string"
				}
			],
			"stateMutability": "view",
			"type": "function"
		},
		{
			"inputs": [
				{
					"internalType": "uint256",
					"name": "index",
					"type": "uint256"
				}
			],
			"name": "tokenByIndex",
			"outputs": [
				{
					"internalType": "uint256",
					"name": "",
					"type": "uint256"
				}
			],
			"stateMutability": "view",
			"type": "function"
		},
		{
			"inputs": [
				{
					"internalType": "address",
					"name": "owner",
					"type": "address"
				},
				{
					"internalType": "uint256",
					"name": "index",
					"type": "uint256"
				}
			],
			"name": "tokenOfOwnerByIndex",
			"outputs": [
				{
					"internalType": "uint256",
					"name": "",
					"type": "uint256"
				}
			],
			"stateMutability": "view",
			"type": "function"
		},
		{
			"inputs": [
				{
					"internalType": "uint256",
					"name": "tokenId",
					"type": "uint256"
				}
			],
			"name": "tokenURI",
			"outputs": [
				{
					"internalType": "string",
					"name": "",
					"type": "string"
				}
			],
			"stateMutability": "view",
			"type": "function"
		},
		{
			"inputs": [],
			"name": "totalSupply",
			"outputs": [
				{
					"internalType": "uint256",
					"name": "",
					"type": "uint256"
				}
			],
			"stateMutability": "view",
			"type": "function"
		},
		{
			"inputs": [
				{
					"internalType": "address",
					"name": "from",
					"type": "address"
				},
				{
					"internalType": "address",
					"name": "to",
					"type": "address"
				},
				{
					"internalType": "uint256",
					"name": "tokenId",
					"type": "uint256"
				}
			],
			"name": "transferFrom",
			"outputs": [],
			"stateMutability": "nonpayable",
			"type": "function"
		},
		{
			"inputs": [
				{
					"internalType": "address",
					"name": "newOwner",
					"type": "address"
				}
			],
			"name": "transferOwnership",
			"outputs": [],
			"stateMutability": "nonpayable",
			"type": "function"
		}
	],
	"bytecode": "0x6080604052666a94d74f430000600d55600a600e553480156200002157600080fd5b506040518060400160405280600981526020017f51756173694d65736800000000000000000000000000000000000000000000008152506040518060400160405280600281526020017f514d0000000000000000000000000000000000000000000000000000000000008152508160009080519060200190620000a6929190620001b6565b508060019080519060200190620000bf929190620001b6565b505050620000e2620000d6620000e860201b60201c565b620000f060201b60201c565b620002cb565b600033905090565b6000600b60009054906101000a900473ffffffffffffffffffffffffffffffffffffffff16905081600b60006101000a81548173ffffffffffffffffffffffffffffffffffffffff021916908373ffffffffffffffffffffffffffffffffffffffff1602179055508173ffffffffffffffffffffffffffffffffffffffff168173ffffffffffffffffffffffffffffffffffffffff167f8be0079c531659141344cd1fd0a4f28419497f9722a3daafe3b4186f6b6457e060405160405180910390a35050565b828054620001c49062000266565b90600052602060002090601f016020900481019282620001e8576000855562000234565b82601f106200020357805160ff191683800117855562000234565b8280016001018555821562000234579182015b828111156200023357825182559160200191906001019062000216565b5b50905062000243919062000247565b5090565b5b808211156200026257600081600090555060010162000248565b5090565b600060028204905060018216806200027f57607f821691505b602082108114156200029657620002956200029c565b5b50919050565b7f4e487b7100000000000000000000000000000000000000000000000000000000600052602260045260246000fd5b6144b680620002db6000396000f3fe6080604052600436106101665760003560e01c8063715018a6116100d1578063a22cb4651161008a578063c87b56dd11610064578063c87b56dd1461051b578063e985e9c514610558578063ec912c8314610595578063f2fde38b146105c057610166565b8063a22cb465146104a0578063a2b40d19146104c9578063b88d4fde146104f257610166565b8063715018a6146103c1578063732e8d73146103d857806379c65068146104035780638da5cb5b1461041f57806395d89b411461044a578063a035b1fe1461047557610166565b806323b872dd1161012357806323b872dd1461027b5780632f745c59146102a457806342842e0e146102e15780634f6ccce71461030a5780636352211e1461034757806370a082311461038457610166565b806301ffc9a71461016b57806306fdde03146101a8578063081812fc146101d3578063095ea7b31461021057806318160ddd146102395780631dd19cb414610264575b600080fd5b34801561017757600080fd5b50610192600480360381019061018d9190612d26565b6105e9565b60405161019f919061348a565b60405180910390f35b3480156101b457600080fd5b506101bd6105fb565b6040516101ca91906134a5565b60405180910390f35b3480156101df57600080fd5b506101fa60048036038101906101f59190612d78565b61068d565b6040516102079190613401565b60405180910390f35b34801561021c57600080fd5b5061023760048036038101906102329190612cea565b610712565b005b34801561024557600080fd5b5061024e61082a565b60405161025b91906137e7565b60405180910390f35b34801561027057600080fd5b50610279610837565b005b34801561028757600080fd5b506102a2600480360381019061029d9190612be4565b6109b4565b005b3480156102b057600080fd5b506102cb60048036038101906102c69190612cea565b610a14565b6040516102d891906137e7565b60405180910390f35b3480156102ed57600080fd5b5061030860048036038101906103039190612be4565b610ab9565b005b34801561031657600080fd5b50610331600480360381019061032c9190612d78565b610ad9565b60405161033e91906137e7565b60405180910390f35b34801561035357600080fd5b5061036e60048036038101906103699190612d78565b610b70565b60405161037b9190613401565b60405180910390f35b34801561039057600080fd5b506103ab60048036038101906103a69190612b7f565b610c22565b6040516103b891906137e7565b60405180910390f35b3480156103cd57600080fd5b506103d6610cda565b005b3480156103e457600080fd5b506103ed610d62565b6040516103fa9190613468565b60405180910390f35b61041d60048036038101906104189190612cea565b610ea8565b005b34801561042b57600080fd5b5061043461101c565b6040516104419190613401565b60405180910390f35b34801561045657600080fd5b5061045f611046565b60405161046c91906134a5565b60405180910390f35b34801561048157600080fd5b5061048a6110d8565b60405161049791906137e7565b60405180910390f35b3480156104ac57600080fd5b506104c760048036038101906104c29190612cae565b6110de565b005b3480156104d557600080fd5b506104f060048036038101906104eb9190612d78565b6110f4565b005b3480156104fe57600080fd5b5061051960048036038101906105149190612c33565b61117a565b005b34801561052757600080fd5b50610542600480360381019061053d9190612d78565b6111dc565b60405161054f91906134a5565b60405180910390f35b34801561056457600080fd5b5061057f600480360381019061057a9190612ba8565b6111ee565b60405161058c919061348a565b60405180910390f35b3480156105a157600080fd5b506105aa611282565b6040516105b791906137e7565b60405180910390f35b3480156105cc57600080fd5b506105e760048036038101906105e29190612b7f565b611288565b005b60006105f482611380565b9050919050565b60606000805461060a90613abb565b80601f016020809104026020016040519081016040528092919081815260200182805461063690613abb565b80156106835780601f1061065857610100808354040283529160200191610683565b820191906000526020600020905b81548152906001019060200180831161066657829003601f168201915b5050505050905090565b6000610698826113fa565b6106d7576040517f08c379a00000000000000000000000000000000000000000000000000000000081526004016106ce906136c7565b60405180910390fd5b6004600083815260200190815260200160002060009054906101000a900473ffffffffffffffffffffffffffffffffffffffff169050919050565b600061071d82610b70565b90508073ffffffffffffffffffffffffffffffffffffffff168373ffffffffffffffffffffffffffffffffffffffff16141561078e576040517f08c379a000000000000000000000000000000000000000000000000000000000815260040161078590613767565b60405180910390fd5b8073ffffffffffffffffffffffffffffffffffffffff166107ad611466565b73ffffffffffffffffffffffffffffffffffffffff1614806107dc57506107db816107d6611466565b6111ee565b5b61081b576040517f08c379a0000000000000000000000000000000000000000000000000000000008152600401610812906135e7565b60405180910390fd5b610825838361146e565b505050565b6000600880549050905090565b61083f611466565b73ffffffffffffffffffffffffffffffffffffffff1661085d61101c565b73ffffffffffffffffffffffffffffffffffffffff16146108b3576040517f08c379a00000000000000000000000000000000000000000000000000000000081526004016108aa906136e7565b60405180910390fd5b60006108bd61101c565b73ffffffffffffffffffffffffffffffffffffffff16476040516108e0906133af565b60006040518083038185875af1925050503d806000811461091d576040519150601f19603f3d011682016040523d82523d6000602084013e610922565b606091505b5050905080610966576040517f08c379a000000000000000000000000000000000000000000000000000000000815260040161095d90613527565b60405180910390fd5b4761096f61101c565b73ffffffffffffffffffffffffffffffffffffffff167fb0477b3d4d588e76d76df1c6cf069311c9dc4f742f19d0f74a70f58803d0768f60405160405180910390a350565b6109c56109bf611466565b82611527565b610a04576040517f08c379a00000000000000000000000000000000000000000000000000000000081526004016109fb90613787565b60405180910390fd5b610a0f838383611605565b505050565b6000610a1f83610c22565b8210610a60576040517f08c379a0000000000000000000000000000000000000000000000000000000008152600401610a57906134c7565b60405180910390fd5b600660008473ffffffffffffffffffffffffffffffffffffffff1673ffffffffffffffffffffffffffffffffffffffff168152602001908152602001600020600083815260200190815260200160002054905092915050565b610ad48383836040518060200160405280600081525061117a565b505050565b6000610ae361082a565b8210610b24576040517f08c379a0000000000000000000000000000000000000000000000000000000008152600401610b1b906137a7565b60405180910390fd5b60088281548110610b5e577f4e487b7100000000000000000000000000000000000000000000000000000000600052603260045260246000fd5b90600052602060002001549050919050565b6000806002600084815260200190815260200160002060009054906101000a900473ffffffffffffffffffffffffffffffffffffffff169050600073ffffffffffffffffffffffffffffffffffffffff168173ffffffffffffffffffffffffffffffffffffffff161415610c19576040517f08c379a0000000000000000000000000000000000000000000000000000000008152600401610c1090613627565b60405180910390fd5b80915050919050565b60008073ffffffffffffffffffffffffffffffffffffffff168273ffffffffffffffffffffffffffffffffffffffff161415610c93576040517f08c379a0000000000000000000000000000000000000000000000000000000008152600401610c8a90613607565b60405180910390fd5b600360008373ffffffffffffffffffffffffffffffffffffffff1673ffffffffffffffffffffffffffffffffffffffff168152602001908152602001600020549050919050565b610ce2611466565b73ffffffffffffffffffffffffffffffffffffffff16610d0061101c565b73ffffffffffffffffffffffffffffffffffffffff1614610d56576040517f08c379a0000000000000000000000000000000000000000000000000000000008152600401610d4d906136e7565b60405180910390fd5b610d606000611861565b565b60606000610d70600c611927565b905060008167ffffffffffffffff811115610db4577f4e487b7100000000000000000000000000000000000000000000000000000000600052604160045260246000fd5b604051908082528060200260200182016040528015610ded57816020015b610dda6129d4565b815260200190600190039081610dd25790505b50905060005b82811015610e9f576000610e0682610b70565b90506000610e1383611935565b905060405180606001604052808481526020018373ffffffffffffffffffffffffffffffffffffffff16815260200182815250848481518110610e7f577f4e487b7100000000000000000000000000000000000000000000000000000000600052603260045260246000fd5b602002602001018190525050508080610e9790613b1e565b915050610df3565b50809250505090565b600073ffffffffffffffffffffffffffffffffffffffff168273ffffffffffffffffffffffffffffffffffffffff161415610f18576040517f08c379a0000000000000000000000000000000000000000000000000000000008152600401610f0f906135c7565b60405180910390fd5b6000811415610f5c576040517f08c379a0000000000000000000000000000000000000000000000000000000008152600401610f53906136a7565b60405180910390fd5b600e54811115610fa1576040517f08c379a0000000000000000000000000000000000000000000000000000000008152600401610f98906137c7565b60405180910390fd5b80600d54610faf9190613977565b3414610ff0576040517f08c379a0000000000000000000000000000000000000000000000000000000008152600401610fe790613707565b60405180910390fd5b60005b818110156110175761100483611a87565b808061100f90613b1e565b915050610ff3565b505050565b6000600b60009054906101000a900473ffffffffffffffffffffffffffffffffffffffff16905090565b60606001805461105590613abb565b80601f016020809104026020016040519081016040528092919081815260200182805461108190613abb565b80156110ce5780601f106110a3576101008083540402835291602001916110ce565b820191906000526020600020905b8154815290600101906020018083116110b157829003601f168201915b5050505050905090565b600d5481565b6110f06110e9611466565b8383611aec565b5050565b6110fc611466565b73ffffffffffffffffffffffffffffffffffffffff1661111a61101c565b73ffffffffffffffffffffffffffffffffffffffff1614611170576040517f08c379a0000000000000000000000000000000000000000000000000000000008152600401611167906136e7565b60405180910390fd5b80600d8190555050565b61118b611185611466565b83611527565b6111ca576040517f08c379a00000000000000000000000000000000000000000000000000000000081526004016111c190613787565b60405180910390fd5b6111d684848484611c59565b50505050565b60606111e782611935565b9050919050565b6000600560008473ffffffffffffffffffffffffffffffffffffffff1673ffffffffffffffffffffffffffffffffffffffff16815260200190815260200160002060008373ffffffffffffffffffffffffffffffffffffffff1673ffffffffffffffffffffffffffffffffffffffff16815260200190815260200160002060009054906101000a900460ff16905092915050565b600e5481565b611290611466565b73ffffffffffffffffffffffffffffffffffffffff166112ae61101c565b73ffffffffffffffffffffffffffffffffffffffff1614611304576040517f08c379a00000000000000000000000000000000000000000000000000000000081526004016112fb906136e7565b60405180910390fd5b600073ffffffffffffffffffffffffffffffffffffffff168173ffffffffffffffffffffffffffffffffffffffff161415611374576040517f08c379a000000000000000000000000000000000000000000000000000000000815260040161136b90613507565b60405180910390fd5b61137d81611861565b50565b60007f780e9d63000000000000000000000000000000000000000000000000000000007bffffffffffffffffffffffffffffffffffffffffffffffffffffffff1916827bffffffffffffffffffffffffffffffffffffffffffffffffffffffff191614806113f357506113f282611cb5565b5b9050919050565b60008073ffffffffffffffffffffffffffffffffffffffff166002600084815260200190815260200160002060009054906101000a900473ffffffffffffffffffffffffffffffffffffffff1673ffffffffffffffffffffffffffffffffffffffff1614159050919050565b600033905090565b816004600083815260200190815260200160002060006101000a81548173ffffffffffffffffffffffffffffffffffffffff021916908373ffffffffffffffffffffffffffffffffffffffff160217905550808273ffffffffffffffffffffffffffffffffffffffff166114e183610b70565b73ffffffffffffffffffffffffffffffffffffffff167f8c5be1e5ebec7d5bd14f71427d1e84f3dd0314c0f7b2291e5b200ac8c7c3b92560405160405180910390a45050565b6000611532826113fa565b611571576040517f08c379a0000000000000000000000000000000000000000000000000000000008152600401611568906135a7565b60405180910390fd5b600061157c83610b70565b90508073ffffffffffffffffffffffffffffffffffffffff168473ffffffffffffffffffffffffffffffffffffffff1614806115eb57508373ffffffffffffffffffffffffffffffffffffffff166115d38461068d565b73ffffffffffffffffffffffffffffffffffffffff16145b806115fc57506115fb81856111ee565b5b91505092915050565b8273ffffffffffffffffffffffffffffffffffffffff1661162582610b70565b73ffffffffffffffffffffffffffffffffffffffff161461167b576040517f08c379a000000000000000000000000000000000000000000000000000000000815260040161167290613727565b60405180910390fd5b600073ffffffffffffffffffffffffffffffffffffffff168273ffffffffffffffffffffffffffffffffffffffff1614156116eb576040517f08c379a00000000000000000000000000000000000000000000000000000000081526004016116e290613567565b60405180910390fd5b6116f6838383611d97565b61170160008261146e565b6001600360008573ffffffffffffffffffffffffffffffffffffffff1673ffffffffffffffffffffffffffffffffffffffff168152602001908152602001600020600082825461175191906139d1565b925050819055506001600360008473ffffffffffffffffffffffffffffffffffffffff1673ffffffffffffffffffffffffffffffffffffffff16815260200190815260200160002060008282546117a891906138f0565b92505081905550816002600083815260200190815260200160002060006101000a81548173ffffffffffffffffffffffffffffffffffffffff021916908373ffffffffffffffffffffffffffffffffffffffff160217905550808273ffffffffffffffffffffffffffffffffffffffff168473ffffffffffffffffffffffffffffffffffffffff167fddf252ad1be2c89b69c2b068fc378daa952ba7f163c4a11628f55a4df523b3ef60405160405180910390a4505050565b6000600b60009054906101000a900473ffffffffffffffffffffffffffffffffffffffff16905081600b60006101000a81548173ffffffffffffffffffffffffffffffffffffffff021916908373ffffffffffffffffffffffffffffffffffffffff1602179055508173ffffffffffffffffffffffffffffffffffffffff168173ffffffffffffffffffffffffffffffffffffffff167f8be0079c531659141344cd1fd0a4f28419497f9722a3daafe3b4186f6b6457e060405160405180910390a35050565b600081600001549050919050565b6060611940826113fa565b61197f576040517f08c379a000000000000000000000000000000000000000000000000000000000815260040161197690613687565b60405180910390fd5b6000600a6000848152602001908152602001600020805461199f90613abb565b80601f01602080910402602001604051908101604052809291908181526020018280546119cb90613abb565b8015611a185780601f106119ed57610100808354040283529160200191611a18565b820191906000526020600020905b8154815290600101906020018083116119fb57829003601f168201915b505050505090506000611a29611da7565b9050600081511415611a3f578192505050611a82565b600082511115611a74578082604051602001611a5c929190613369565b60405160208183030381529060405292505050611a82565b611a7d84611dc7565b925050505b919050565b6000611a93600c611927565b9050611a9f600c611e6e565b611aa98282611e84565b6000611abc611ab783611ea2565b611ee5565b604051602001611acc919061338d565b6040516020818303038152906040529050611ae78282612092565b505050565b8173ffffffffffffffffffffffffffffffffffffffff168373ffffffffffffffffffffffffffffffffffffffff161415611b5b576040517f08c379a0000000000000000000000000000000000000000000000000000000008152600401611b5290613587565b60405180910390fd5b80600560008573ffffffffffffffffffffffffffffffffffffffff1673ffffffffffffffffffffffffffffffffffffffff16815260200190815260200160002060008473ffffffffffffffffffffffffffffffffffffffff1673ffffffffffffffffffffffffffffffffffffffff16815260200190815260200160002060006101000a81548160ff0219169083151502179055508173ffffffffffffffffffffffffffffffffffffffff168373ffffffffffffffffffffffffffffffffffffffff167f17307eab39ab6107e8899845ad3d59bd9653f200f220920489ca2b5937696c3183604051611c4c919061348a565b60405180910390a3505050565b611c64848484611605565b611c7084848484612106565b611caf576040517f08c379a0000000000000000000000000000000000000000000000000000000008152600401611ca6906134e7565b60405180910390fd5b50505050565b60007f80ac58cd000000000000000000000000000000000000000000000000000000007bffffffffffffffffffffffffffffffffffffffffffffffffffffffff1916827bffffffffffffffffffffffffffffffffffffffffffffffffffffffff19161480611d8057507f5b5e139f000000000000000000000000000000000000000000000000000000007bffffffffffffffffffffffffffffffffffffffffffffffffffffffff1916827bffffffffffffffffffffffffffffffffffffffffffffffffffffffff1916145b80611d905750611d8f8261229d565b5b9050919050565b611da2838383612307565b505050565b606060405180608001604052806044815260200161443d60449139905090565b6060611dd2826113fa565b611e11576040517f08c379a0000000000000000000000000000000000000000000000000000000008152600401611e0890613747565b60405180910390fd5b6000611e1b611da7565b90506000815111611e3b5760405180602001604052806000815250611e66565b80611e4584611ee5565b604051602001611e56929190613369565b6040516020818303038152906040525b915050919050565b6001816000016000828254019250508190555050565b611e9e82826040518060200160405280600081525061241b565b5050565b6000600a444284604051602001611ebb939291906133c4565b6040516020818303038152906040528051906020012060001c611ede9190613b71565b9050919050565b60606000821415611f2d576040518060400160405280600181526020017f3000000000000000000000000000000000000000000000000000000000000000815250905061208d565b600082905060005b60008214611f5f578080611f4890613b1e565b915050600a82611f589190613946565b9150611f35565b60008167ffffffffffffffff811115611fa1577f4e487b7100000000000000000000000000000000000000000000000000000000600052604160045260246000fd5b6040519080825280601f01601f191660200182016040528015611fd35781602001600182028036833780820191505090505b5090505b6000851461208657600182611fec91906139d1565b9150600a85611ffb9190613b71565b603061200791906138f0565b60f81b818381518110612043577f4e487b7100000000000000000000000000000000000000000000000000000000600052603260045260246000fd5b60200101907effffffffffffffffffffffffffffffffffffffffffffffffffffffffffffff1916908160001a905350600a8561207f9190613946565b9450611fd7565b8093505050505b919050565b61209b826113fa565b6120da576040517f08c379a00000000000000000000000000000000000000000000000000000000081526004016120d190613647565b60405180910390fd5b80600a60008481526020019081526020016000209080519060200190612101929190612a0b565b505050565b60006121278473ffffffffffffffffffffffffffffffffffffffff16612476565b15612290578373ffffffffffffffffffffffffffffffffffffffff1663150b7a02612150611466565b8786866040518563ffffffff1660e01b8152600401612172949392919061341c565b602060405180830381600087803b15801561218c57600080fd5b505af19250505080156121bd57506040513d601f19601f820116820180604052508101906121ba9190612d4f565b60015b612240573d80600081146121ed576040519150601f19603f3d011682016040523d82523d6000602084013e6121f2565b606091505b50600081511415612238576040517f08c379a000000000000000000000000000000000000000000000000000000000815260040161222f906134e7565b60405180910390fd5b805181602001fd5b63150b7a0260e01b7bffffffffffffffffffffffffffffffffffffffffffffffffffffffff1916817bffffffffffffffffffffffffffffffffffffffffffffffffffffffff191614915050612295565b600190505b949350505050565b60007f01ffc9a7000000000000000000000000000000000000000000000000000000007bffffffffffffffffffffffffffffffffffffffffffffffffffffffff1916827bffffffffffffffffffffffffffffffffffffffffffffffffffffffff1916149050919050565b612312838383612489565b600073ffffffffffffffffffffffffffffffffffffffff168373ffffffffffffffffffffffffffffffffffffffff161415612355576123508161248e565b612394565b8173ffffffffffffffffffffffffffffffffffffffff168373ffffffffffffffffffffffffffffffffffffffff16146123935761239283826124d7565b5b5b600073ffffffffffffffffffffffffffffffffffffffff168273ffffffffffffffffffffffffffffffffffffffff1614156123d7576123d281612644565b612416565b8273ffffffffffffffffffffffffffffffffffffffff168273ffffffffffffffffffffffffffffffffffffffff1614612415576124148282612787565b5b5b505050565b6124258383612806565b6124326000848484612106565b612471576040517f08c379a0000000000000000000000000000000000000000000000000000000008152600401612468906134e7565b60405180910390fd5b505050565b600080823b905060008111915050919050565b505050565b6008805490506009600083815260200190815260200160002081905550600881908060018154018082558091505060019003906000526020600020016000909190919091505550565b600060016124e484610c22565b6124ee91906139d1565b90506000600760008481526020019081526020016000205490508181146125d3576000600660008673ffffffffffffffffffffffffffffffffffffffff1673ffffffffffffffffffffffffffffffffffffffff168152602001908152602001600020600084815260200190815260200160002054905080600660008773ffffffffffffffffffffffffffffffffffffffff1673ffffffffffffffffffffffffffffffffffffffff168152602001908152602001600020600084815260200190815260200160002081905550816007600083815260200190815260200160002081905550505b6007600084815260200190815260200160002060009055600660008573ffffffffffffffffffffffffffffffffffffffff1673ffffffffffffffffffffffffffffffffffffffff16815260200190815260200160002060008381526020019081526020016000206000905550505050565b6000600160088054905061265891906139d1565b90506000600960008481526020019081526020016000205490506000600883815481106126ae577f4e487b7100000000000000000000000000000000000000000000000000000000600052603260045260246000fd5b9060005260206000200154905080600883815481106126f6577f4e487b7100000000000000000000000000000000000000000000000000000000600052603260045260246000fd5b90600052602060002001819055508160096000838152602001908152602001600020819055506009600085815260200190815260200160002060009055600880548061276b577f4e487b7100000000000000000000000000000000000000000000000000000000600052603160045260246000fd5b6001900381819060005260206000200160009055905550505050565b600061279283610c22565b905081600660008573ffffffffffffffffffffffffffffffffffffffff1673ffffffffffffffffffffffffffffffffffffffff168152602001908152602001600020600083815260200190815260200160002081905550806007600084815260200190815260200160002081905550505050565b600073ffffffffffffffffffffffffffffffffffffffff168273ffffffffffffffffffffffffffffffffffffffff161415612876576040517f08c379a000000000000000000000000000000000000000000000000000000000815260040161286d90613667565b60405180910390fd5b61287f816113fa565b156128bf576040517f08c379a00000000000000000000000000000000000000000000000000000000081526004016128b690613547565b60405180910390fd5b6128cb60008383611d97565b6001600360008473ffffffffffffffffffffffffffffffffffffffff1673ffffffffffffffffffffffffffffffffffffffff168152602001908152602001600020600082825461291b91906138f0565b92505081905550816002600083815260200190815260200160002060006101000a81548173ffffffffffffffffffffffffffffffffffffffff021916908373ffffffffffffffffffffffffffffffffffffffff160217905550808273ffffffffffffffffffffffffffffffffffffffff16600073ffffffffffffffffffffffffffffffffffffffff167fddf252ad1be2c89b69c2b068fc378daa952ba7f163c4a11628f55a4df523b3ef60405160405180910390a45050565b604051806060016040528060008152602001600073ffffffffffffffffffffffffffffffffffffffff168152602001606081525090565b828054612a1790613abb565b90600052602060002090601f016020900481019282612a395760008555612a80565b82601f10612a5257805160ff1916838001178555612a80565b82800160010185558215612a80579182015b82811115612a7f578251825591602001919060010190612a64565b5b509050612a8d9190612a91565b5090565b5b80821115612aaa576000816000905550600101612a92565b5090565b6000612ac1612abc84613827565b613802565b905082815260208101848484011115612ad957600080fd5b612ae4848285613a79565b509392505050565b600081359050612afb816143e0565b92915050565b600081359050612b10816143f7565b92915050565b600081359050612b258161440e565b92915050565b600081519050612b3a8161440e565b92915050565b600082601f830112612b5157600080fd5b8135612b61848260208601612aae565b91505092915050565b600081359050612b7981614425565b92915050565b600060208284031215612b9157600080fd5b6000612b9f84828501612aec565b91505092915050565b60008060408385031215612bbb57600080fd5b6000612bc985828601612aec565b9250506020612bda85828601612aec565b9150509250929050565b600080600060608486031215612bf957600080fd5b6000612c0786828701612aec565b9350506020612c1886828701612aec565b9250506040612c2986828701612b6a565b9150509250925092565b60008060008060808587031215612c4957600080fd5b6000612c5787828801612aec565b9450506020612c6887828801612aec565b9350506040612c7987828801612b6a565b925050606085013567ffffffffffffffff811115612c9657600080fd5b612ca287828801612b40565b91505092959194509250565b60008060408385031215612cc157600080fd5b6000612ccf85828601612aec565b9250506020612ce085828601612b01565b9150509250929050565b60008060408385031215612cfd57600080fd5b6000612d0b85828601612aec565b9250506020612d1c85828601612b6a565b9150509250929050565b600060208284031215612d3857600080fd5b6000612d4684828501612b16565b91505092915050565b600060208284031215612d6157600080fd5b6000612d6f84828501612b2b565b91505092915050565b600060208284031215612d8a57600080fd5b6000612d9884828501612b6a565b91505092915050565b6000612dad83836132e4565b905092915050565b612dbe81613a05565b82525050565b612dcd81613a05565b82525050565b6000612dde82613868565b612de88185613896565b935083602082028501612dfa85613858565b8060005b85811015612e365784840389528151612e178582612da1565b9450612e2283613889565b925060208a01995050600181019050612dfe565b50829750879550505050505092915050565b612e5181613a17565b82525050565b6000612e6282613873565b612e6c81856138a7565b9350612e7c818560208601613a88565b612e8581613c5e565b840191505092915050565b6000612e9b8261387e565b612ea581856138c3565b9350612eb5818560208601613a88565b612ebe81613c5e565b840191505092915050565b6000612ed48261387e565b612ede81856138d4565b9350612eee818560208601613a88565b612ef781613c5e565b840191505092915050565b6000612f0d8261387e565b612f1781856138e5565b9350612f27818560208601613a88565b80840191505092915050565b6000612f40602b836138d4565b9150612f4b82613c6f565b604082019050919050565b6000612f636032836138d4565b9150612f6e82613cbe565b604082019050919050565b6000612f866026836138d4565b9150612f9182613d0d565b604082019050919050565b6000612fa96025836138d4565b9150612fb482613d5c565b604082019050919050565b6000612fcc601c836138d4565b9150612fd782613dab565b602082019050919050565b6000612fef6024836138d4565b9150612ffa82613dd4565b604082019050919050565b60006130126019836138d4565b915061301d82613e23565b602082019050919050565b6000613035602c836138d4565b915061304082613e4c565b604082019050919050565b6000613058602d836138d4565b915061306382613e9b565b604082019050919050565b600061307b6038836138d4565b915061308682613eea565b604082019050919050565b600061309e602a836138d4565b91506130a982613f39565b604082019050919050565b60006130c16029836138d4565b91506130cc82613f88565b604082019050919050565b60006130e4602e836138d4565b91506130ef82613fd7565b604082019050919050565b60006131076020836138d4565b915061311282614026565b602082019050919050565b600061312a6031836138d4565b91506131358261404f565b604082019050919050565b600061314d6029836138d4565b91506131588261409e565b604082019050919050565b6000613170602c836138d4565b915061317b826140ed565b604082019050919050565b60006131936005836138e5565b915061319e8261413c565b600582019050919050565b60006131b66020836138d4565b91506131c182614165565b602082019050919050565b60006131d96029836138d4565b91506131e48261418e565b604082019050919050565b60006131fc6029836138d4565b9150613207826141dd565b604082019050919050565b600061321f602f836138d4565b915061322a8261422c565b604082019050919050565b60006132426021836138d4565b915061324d8261427b565b604082019050919050565b60006132656000836138b8565b9150613270826142ca565b600082019050919050565b60006132886031836138d4565b9150613293826142cd565b604082019050919050565b60006132ab602c836138d4565b91506132b68261431c565b604082019050919050565b60006132ce6047836138d4565b91506132d98261436b565b606082019050919050565b60006060830160008301516132fc6000860182613334565b50602083015161330f6020860182612db5565b50604083015184820360408601526133278282612e90565b9150508091505092915050565b61333d81613a6f565b82525050565b61334c81613a6f565b82525050565b61336361335e82613a6f565b613b67565b82525050565b60006133758285612f02565b91506133818284612f02565b91508190509392505050565b60006133998284612f02565b91506133a482613186565b915081905092915050565b60006133ba82613258565b9150819050919050565b60006133d08286613352565b6020820191506133e08285613352565b6020820191506133f08284613352565b602082019150819050949350505050565b60006020820190506134166000830184612dc4565b92915050565b60006080820190506134316000830187612dc4565b61343e6020830186612dc4565b61344b6040830185613343565b818103606083015261345d8184612e57565b905095945050505050565b600060208201905081810360008301526134828184612dd3565b905092915050565b600060208201905061349f6000830184612e48565b92915050565b600060208201905081810360008301526134bf8184612ec9565b905092915050565b600060208201905081810360008301526134e081612f33565b9050919050565b6000602082019050818103600083015261350081612f56565b9050919050565b6000602082019050818103600083015261352081612f79565b9050919050565b6000602082019050818103600083015261354081612f9c565b9050919050565b6000602082019050818103600083015261356081612fbf565b9050919050565b6000602082019050818103600083015261358081612fe2565b9050919050565b600060208201905081810360008301526135a081613005565b9050919050565b600060208201905081810360008301526135c081613028565b9050919050565b600060208201905081810360008301526135e08161304b565b9050919050565b600060208201905081810360008301526136008161306e565b9050919050565b6000602082019050818103600083015261362081613091565b9050919050565b60006020820190508181036000830152613640816130b4565b9050919050565b60006020820190508181036000830152613660816130d7565b9050919050565b60006020820190508181036000830152613680816130fa565b9050919050565b600060208201905081810360008301526136a08161311d565b9050919050565b600060208201905081810360008301526136c081613140565b9050919050565b600060208201905081810360008301526136e081613163565b9050919050565b60006020820190508181036000830152613700816131a9565b9050919050565b60006020820190508181036000830152613720816131cc565b9050919050565b60006020820190508181036000830152613740816131ef565b9050919050565b6000602082019050818103600083015261376081613212565b9050919050565b6000602082019050818103600083015261378081613235565b9050919050565b600060208201905081810360008301526137a08161327b565b9050919050565b600060208201905081810360008301526137c08161329e565b9050919050565b600060208201905081810360008301526137e0816132c1565b9050919050565b60006020820190506137fc6000830184613343565b92915050565b600061380c61381d565b90506138188282613aed565b919050565b6000604051905090565b600067ffffffffffffffff82111561384257613841613c2f565b5b61384b82613c5e565b9050602081019050919050565b6000819050602082019050919050565b600081519050919050565b600081519050919050565b600081519050919050565b6000602082019050919050565b600082825260208201905092915050565b600082825260208201905092915050565b600081905092915050565b600082825260208201905092915050565b600082825260208201905092915050565b600081905092915050565b60006138fb82613a6f565b915061390683613a6f565b9250827fffffffffffffffffffffffffffffffffffffffffffffffffffffffffffffffff0382111561393b5761393a613ba2565b5b828201905092915050565b600061395182613a6f565b915061395c83613a6f565b92508261396c5761396b613bd1565b5b828204905092915050565b600061398282613a6f565b915061398d83613a6f565b9250817fffffffffffffffffffffffffffffffffffffffffffffffffffffffffffffffff04831182151516156139c6576139c5613ba2565b5b828202905092915050565b60006139dc82613a6f565b91506139e783613a6f565b9250828210156139fa576139f9613ba2565b5b828203905092915050565b6000613a1082613a4f565b9050919050565b60008115159050919050565b60007fffffffff0000000000000000000000000000000000000000000000000000000082169050919050565b600073ffffffffffffffffffffffffffffffffffffffff82169050919050565b6000819050919050565b82818337600083830152505050565b60005b83811015613aa6578082015181840152602081019050613a8b565b83811115613ab5576000848401525b50505050565b60006002820490506001821680613ad357607f821691505b60208210811415613ae757613ae6613c00565b5b50919050565b613af682613c5e565b810181811067ffffffffffffffff82111715613b1557613b14613c2f565b5b80604052505050565b6000613b2982613a6f565b91507fffffffffffffffffffffffffffffffffffffffffffffffffffffffffffffffff821415613b5c57613b5b613ba2565b5b600182019050919050565b6000819050919050565b6000613b7c82613a6f565b9150613b8783613a6f565b925082613b9757613b96613bd1565b5b828206905092915050565b7f4e487b7100000000000000000000000000000000000000000000000000000000600052601160045260246000fd5b7f4e487b7100000000000000000000000000000000000000000000000000000000600052601260045260246000fd5b7f4e487b7100000000000000000000000000000000000000000000000000000000600052602260045260246000fd5b7f4e487b7100000000000000000000000000000000000000000000000000000000600052604160045260246000fd5b6000601f19601f8301169050919050565b7f455243373231456e756d657261626c653a206f776e657220696e646578206f7560008201527f74206f6620626f756e6473000000000000000000000000000000000000000000602082015250565b7f4552433732313a207472616e7366657220746f206e6f6e20455243373231526560008201527f63656976657220696d706c656d656e7465720000000000000000000000000000602082015250565b7f4f776e61626c653a206e6577206f776e657220697320746865207a65726f206160008201527f6464726573730000000000000000000000000000000000000000000000000000602082015250565b7f51756173694d6573683a3a20736b696d3a205472616e73616374696f6e20466160008201527f696c656421000000000000000000000000000000000000000000000000000000602082015250565b7f4552433732313a20746f6b656e20616c7265616479206d696e74656400000000600082015250565b7f4552433732313a207472616e7366657220746f20746865207a65726f2061646460008201527f7265737300000000000000000000000000000000000000000000000000000000602082015250565b7f4552433732313a20617070726f766520746f2063616c6c657200000000000000600082015250565b7f4552433732313a206f70657261746f7220717565727920666f72206e6f6e657860008201527f697374656e7420746f6b656e0000000000000000000000000000000000000000602082015250565b7f51756173694d6573683a3a206d696e74546f6b656e3a205f746f2063616e277460008201527f2062652061646472657373203000000000000000000000000000000000000000602082015250565b7f4552433732313a20617070726f76652063616c6c6572206973206e6f74206f7760008201527f6e6572206e6f7220617070726f76656420666f7220616c6c0000000000000000602082015250565b7f4552433732313a2062616c616e636520717565727920666f7220746865207a6560008201527f726f206164647265737300000000000000000000000000000000000000000000602082015250565b7f4552433732313a206f776e657220717565727920666f72206e6f6e657869737460008201527f656e7420746f6b656e0000000000000000000000000000000000000000000000602082015250565b7f45524337323155524953746f726167653a2055524920736574206f66206e6f6e60008201527f6578697374656e7420746f6b656e000000000000000000000000000000000000602082015250565b7f4552433732313a206d696e7420746f20746865207a65726f2061646472657373600082015250565b7f45524337323155524953746f726167653a2055524920717565727920666f722060008201527f6e6f6e6578697374656e7420746f6b656e000000000000000000000000000000602082015250565b7f51756173694d6573683a3a206d696e74546f6b656e3a205f616d6f756e74206360008201527f616e277420626520300000000000000000000000000000000000000000000000602082015250565b7f4552433732313a20617070726f76656420717565727920666f72206e6f6e657860008201527f697374656e7420746f6b656e0000000000000000000000000000000000000000602082015250565b7f2e6a736f6e000000000000000000000000000000000000000000000000000000600082015250565b7f4f776e61626c653a2063616c6c6572206973206e6f7420746865206f776e6572600082015250565b7f51756173694d6573683a3a206d696e74546f6b656e3a2057726f6e6720616d6f60008201527f756e742073656e74210000000000000000000000000000000000000000000000602082015250565b7f4552433732313a207472616e73666572206f6620746f6b656e2074686174206960008201527f73206e6f74206f776e0000000000000000000000000000000000000000000000602082015250565b7f4552433732314d657461646174613a2055524920717565727920666f72206e6f60008201527f6e6578697374656e7420746f6b656e0000000000000000000000000000000000602082015250565b7f4552433732313a20617070726f76616c20746f2063757272656e74206f776e6560008201527f7200000000000000000000000000000000000000000000000000000000000000602082015250565b50565b7f4552433732313a207472616e736665722063616c6c6572206973206e6f74206f60008201527f776e6572206e6f7220617070726f766564000000000000000000000000000000602082015250565b7f455243373231456e756d657261626c653a20676c6f62616c20696e646578206f60008201527f7574206f6620626f756e64730000000000000000000000000000000000000000602082015250565b7f51756173694d6573683a3a206d696e74546f6b656e3a205f616d6f756e74206360008201527f616e27742062652067726561746572207468616e206d61784d696e74546f6b6560208201527f6e73202831302900000000000000000000000000000000000000000000000000604082015250565b6143e981613a05565b81146143f457600080fd5b50565b61440081613a17565b811461440b57600080fd5b50565b61441781613a23565b811461442257600080fd5b50565b61442e81613a6f565b811461443957600080fd5b5056fe68747470733a2f2f697066732e696f2f697066732f516d57624366655866634b463758323567635857576175356961446a786334773377556f78646a6e77444a6476452fa26469706673582212206eb9e49fb9c32a45424c56a8db30447152fedf9e4d67eceb1d3cc5222bba758964736f6c63430008040033",
	"linkReferences": {},
	"deployedLinkReferences": {}
}