{
  "_format": "hh-sol-artifact-1",
  "contractName": "NFTMarket",
  "sourceName": "contracts/Market/Market.sol",
  "abi": [
    {
      "anonymous": false,
      "inputs": [
        {
          "indexed": true,
          "internalType": "uint256",
          "name": "_tokenId",
          "type": "uint256"
        }
      ],
      "name": "BuyToken",
      "type": "event"
    },
    {
      "anonymous": false,
      "inputs": [
        {
          "indexed": true,
          "internalType": "address",
          "name": "_nftContract",
          "type": "address"
        }
      ],
      "name": "ContractEnlisted",
      "type": "event"
    },
    {
      "anonymous": false,
      "inputs": [
        {
          "indexed": true,
          "internalType": "uint256",
          "name": "_id",
          "type": "uint256"
        },
        {
          "indexed": true,
          "internalType": "uint256",
          "name": "_tokenId",
          "type": "uint256"
        },
        {
          "indexed": true,
          "internalType": "address",
          "name": "nftContract",
          "type": "address"
        },
        {
          "indexed": false,
          "internalType": "uint256",
          "name": "_price",
          "type": "uint256"
        }
      ],
      "name": "ListingAdded",
      "type": "event"
    },
    {
      "anonymous": false,
      "inputs": [
        {
          "indexed": true,
          "internalType": "uint256",
          "name": "_id",
          "type": "uint256"
        },
        {
          "indexed": true,
          "internalType": "address",
          "name": "nftContract",
          "type": "address"
        },
        {
          "indexed": true,
          "internalType": "uint256",
          "name": "_tokenId",
          "type": "uint256"
        }
      ],
      "name": "ListingRemoved",
      "type": "event"
    },
    {
      "anonymous": false,
      "inputs": [
        {
          "indexed": true,
          "internalType": "address",
          "name": "previousOwner",
          "type": "address"
        },
        {
          "indexed": true,
          "internalType": "address",
          "name": "newOwner",
          "type": "address"
        }
      ],
      "name": "OwnershipTransferred",
      "type": "event"
    },
    {
      "inputs": [
        {
          "internalType": "uint256",
          "name": "_nftId",
          "type": "uint256"
        }
      ],
      "name": "buyToken",
      "outputs": [],
      "stateMutability": "payable",
      "type": "function"
    },
    {
      "inputs": [
        {
          "internalType": "uint256",
          "name": "_itemId",
          "type": "uint256"
        },
        {
          "internalType": "uint256",
          "name": "_newPrice",
          "type": "uint256"
        }
      ],
      "name": "changeNftPrice",
      "outputs": [],
      "stateMutability": "nonpayable",
      "type": "function"
    },
    {
      "inputs": [],
      "name": "getAllNfts",
      "outputs": [
        {
          "components": [
            {
              "internalType": "address",
              "name": "nftAddress",
              "type": "address"
            },
            {
              "internalType": "uint256",
              "name": "itemId",
              "type": "uint256"
            },
            {
              "internalType": "uint256",
              "name": "tokenId",
              "type": "uint256"
            },
            {
              "internalType": "uint256",
              "name": "price",
              "type": "uint256"
            },
            {
              "internalType": "address payable",
              "name": "owner",
              "type": "address"
            },
            {
              "internalType": "address payable",
              "name": "seller",
              "type": "address"
            },
            {
              "internalType": "bool",
              "name": "forSale",
              "type": "bool"
            }
          ],
          "internalType": "struct NFTMarket.NFTInfo[]",
          "name": "",
          "type": "tuple[]"
        }
      ],
      "stateMutability": "view",
      "type": "function"
    },
    {
      "inputs": [
        {
          "internalType": "uint256",
          "name": "_id",
          "type": "uint256"
        }
      ],
      "name": "getNftById",
      "outputs": [
        {
          "components": [
            {
              "internalType": "address",
              "name": "nftAddress",
              "type": "address"
            },
            {
              "internalType": "uint256",
              "name": "itemId",
              "type": "uint256"
            },
            {
              "internalType": "uint256",
              "name": "tokenId",
              "type": "uint256"
            },
            {
              "internalType": "uint256",
              "name": "price",
              "type": "uint256"
            },
            {
              "internalType": "address payable",
              "name": "owner",
              "type": "address"
            },
            {
              "internalType": "address payable",
              "name": "seller",
              "type": "address"
            },
            {
              "internalType": "bool",
              "name": "forSale",
              "type": "bool"
            }
          ],
          "internalType": "struct NFTMarket.NFTInfo",
          "name": "",
          "type": "tuple"
        }
      ],
      "stateMutability": "view",
      "type": "function"
    },
    {
      "inputs": [
        {
          "internalType": "uint256",
          "name": "_id",
          "type": "uint256"
        }
      ],
      "name": "getNftContract",
      "outputs": [
        {
          "internalType": "address",
          "name": "",
          "type": "address"
        }
      ],
      "stateMutability": "view",
      "type": "function"
    },
    {
      "inputs": [
        {
          "internalType": "uint256",
          "name": "_id",
          "type": "uint256"
        }
      ],
      "name": "getNftPrice",
      "outputs": [
        {
          "internalType": "uint256",
          "name": "",
          "type": "uint256"
        }
      ],
      "stateMutability": "view",
      "type": "function"
    },
    {
      "inputs": [
        {
          "internalType": "uint256",
          "name": "_id",
          "type": "uint256"
        }
      ],
      "name": "getNftSeller",
      "outputs": [
        {
          "internalType": "address",
          "name": "",
          "type": "address"
        }
      ],
      "stateMutability": "view",
      "type": "function"
    },
    {
      "inputs": [
        {
          "internalType": "uint256",
          "name": "_id",
          "type": "uint256"
        }
      ],
      "name": "getNftTokenId",
      "outputs": [
        {
          "internalType": "uint256",
          "name": "",
          "type": "uint256"
        }
      ],
      "stateMutability": "view",
      "type": "function"
    },
    {
      "inputs": [],
      "name": "getNftsForSale",
      "outputs": [
        {
          "components": [
            {
              "internalType": "address",
              "name": "nftAddress",
              "type": "address"
            },
            {
              "internalType": "uint256",
              "name": "itemId",
              "type": "uint256"
            },
            {
              "internalType": "uint256",
              "name": "tokenId",
              "type": "uint256"
            },
            {
              "internalType": "uint256",
              "name": "price",
              "type": "uint256"
            },
            {
              "internalType": "address payable",
              "name": "owner",
              "type": "address"
            },
            {
              "internalType": "address payable",
              "name": "seller",
              "type": "address"
            },
            {
              "internalType": "bool",
              "name": "forSale",
              "type": "bool"
            }
          ],
          "internalType": "struct NFTMarket.NFTInfo[]",
          "name": "",
          "type": "tuple[]"
        }
      ],
      "stateMutability": "view",
      "type": "function"
    },
    {
      "inputs": [
        {
          "internalType": "uint256",
          "name": "_id",
          "type": "uint256"
        }
      ],
      "name": "getSaleStatus",
      "outputs": [
        {
          "internalType": "bool",
          "name": "",
          "type": "bool"
        }
      ],
      "stateMutability": "view",
      "type": "function"
    },
    {
      "inputs": [
        {
          "internalType": "uint256",
          "name": "",
          "type": "uint256"
        }
      ],
      "name": "listedTokens",
      "outputs": [
        {
          "internalType": "address",
          "name": "",
          "type": "address"
        }
      ],
      "stateMutability": "view",
      "type": "function"
    },
    {
      "inputs": [
        {
          "internalType": "address",
          "name": "_nftContract",
          "type": "address"
        },
        {
          "internalType": "uint256",
          "name": "_tokenId",
          "type": "uint256"
        },
        {
          "internalType": "uint256",
          "name": "_price",
          "type": "uint256"
        }
      ],
      "name": "marketToken",
      "outputs": [],
      "stateMutability": "payable",
      "type": "function"
    },
    {
      "inputs": [
        {
          "internalType": "address",
          "name": "",
          "type": "address"
        },
        {
          "internalType": "address",
          "name": "",
          "type": "address"
        },
        {
          "internalType": "uint256",
          "name": "",
          "type": "uint256"
        },
        {
          "internalType": "bytes",
          "name": "",
          "type": "bytes"
        }
      ],
      "name": "onERC721Received",
      "outputs": [
        {
          "internalType": "bytes4",
          "name": "",
          "type": "bytes4"
        }
      ],
      "stateMutability": "nonpayable",
      "type": "function"
    },
    {
      "inputs": [],
      "name": "owner",
      "outputs": [
        {
          "internalType": "address",
          "name": "",
          "type": "address"
        }
      ],
      "stateMutability": "view",
      "type": "function"
    },
    {
      "inputs": [
        {
          "internalType": "uint256",
          "name": "_nftId",
          "type": "uint256"
        }
      ],
      "name": "removeFromListing",
      "outputs": [],
      "stateMutability": "nonpayable",
      "type": "function"
    },
    {
      "inputs": [],
      "name": "renounceOwnership",
      "outputs": [],
      "stateMutability": "nonpayable",
      "type": "function"
    },
    {
      "inputs": [
        {
          "internalType": "address",
          "name": "newOwner",
          "type": "address"
        }
      ],
      "name": "transferOwnership",
      "outputs": [],
      "stateMutability": "nonpayable",
      "type": "function"
    }
  ],
  "bytecode": "0x60806040523480156200001157600080fd5b5060016000819055506200003a6200002e6200004060201b60201c565b6200004860201b60201c565b6200010e565b600033905090565b6000600160009054906101000a900473ffffffffffffffffffffffffffffffffffffffff16905081600160006101000a81548173ffffffffffffffffffffffffffffffffffffffff021916908373ffffffffffffffffffffffffffffffffffffffff1602179055508173ffffffffffffffffffffffffffffffffffffffff168173ffffffffffffffffffffffffffffffffffffffff167f8be0079c531659141344cd1fd0a4f28419497f9722a3daafe3b4186f6b6457e060405160405180910390a35050565b612862806200011e6000396000f3fe6080604052600436106100fe5760003560e01c80637494b04f1161009557806395a81b8f1161006457806395a81b8f1461034c578063a349bac314610389578063d254d2c6146103a5578063d7ed242f146103e2578063f2fde38b1461040d576100fe565b80637494b04f1461026a5780637bf0989a146102a75780637c78a705146102e45780638da5cb5b14610321576100fe565b80635a9d1ac3116100d15780635a9d1ac3146101c25780635b9d252d146101ff578063715018a614610228578063732e8d731461023f576100fe565b806303f1baa61461010357806314eb055d14610140578063150b7a02146101695780632d296bf1146101a6575b600080fd5b34801561010f57600080fd5b5061012a60048036038101906101259190611baf565b610436565b6040516101379190611fd7565b60405180910390f35b34801561014c57600080fd5b5061016760048036038101906101629190611bd8565b610476565b005b34801561017557600080fd5b50610190600480360381019061018b9190611ae5565b610539565b60405161019d9190612066565b60405180910390f35b6101c060048036038101906101bb9190611baf565b61054d565b005b3480156101ce57600080fd5b506101e960048036038101906101e49190611baf565b6108b2565b6040516101f69190611fd7565b60405180910390f35b34801561020b57600080fd5b5061022660048036038101906102219190611baf565b6108f1565b005b34801561023457600080fd5b5061023d610a64565b005b34801561024b57600080fd5b50610254610aec565b6040516102619190612029565b60405180910390f35b34801561027657600080fd5b50610291600480360381019061028c9190611baf565b610d5a565b60405161029e91906121fc565b60405180910390f35b3480156102b357600080fd5b506102ce60048036038101906102c99190611baf565b610d7a565b6040516102db91906121fc565b60405180910390f35b3480156102f057600080fd5b5061030b60048036038101906103069190611baf565b610d9a565b6040516103189190611fd7565b60405180910390f35b34801561032d57600080fd5b50610336610dda565b6040516103439190611fd7565b60405180910390f35b34801561035857600080fd5b50610373600480360381019061036e9190611baf565b610e04565b60405161038091906121e1565b60405180910390f35b6103a3600480360381019061039e9190611b60565b610f6c565b005b3480156103b157600080fd5b506103cc60048036038101906103c79190611baf565b61143d565b6040516103d9919061204b565b60405180910390f35b3480156103ee57600080fd5b506103f761146a565b6040516104049190612029565b60405180910390f35b34801561041957600080fd5b50610434600480360381019061042f9190611a93565b611781565b005b60006005600083815260200190815260200160002060050160009054906101000a900473ffffffffffffffffffffffffffffffffffffffff169050919050565b6005600083815260200190815260200160002060050160009054906101000a900473ffffffffffffffffffffffffffffffffffffffff1673ffffffffffffffffffffffffffffffffffffffff163373ffffffffffffffffffffffffffffffffffffffff161461051a576040517f08c379a0000000000000000000000000000000000000000000000000000000008152600401610511906121a1565b60405180910390fd5b8060056000848152602001908152602001600020600301819055505050565b600063150b7a0260e01b9050949350505050565b60026000541415610593576040517f08c379a000000000000000000000000000000000000000000000000000000000815260040161058a90612181565b60405180910390fd5b6002600081905550600560008281526020019081526020016000206003015434146105f3576040517f08c379a00000000000000000000000000000000000000000000000000000000081526004016105ea906120c1565b60405180910390fd5b6005600082815260200190815260200160002060050160149054906101000a900460ff16610656576040517f08c379a000000000000000000000000000000000000000000000000000000000815260040161064d90612101565b60405180910390fd5b60006005600083815260200190815260200160002060050160146101000a81548160ff021916908315150217905550336005600083815260200190815260200160002060050160006101000a81548173ffffffffffffffffffffffffffffffffffffffff021916908373ffffffffffffffffffffffffffffffffffffffff1602179055506106e46003611879565b60006005600083815260200190815260200160002060000160009054906101000a900473ffffffffffffffffffffffffffffffffffffffff16905060006005600084815260200190815260200160002060050160009054906101000a900473ffffffffffffffffffffffffffffffffffffffff1690506000600560008581526020019081526020016000206002015490506000600560008681526020019081526020016000206003015490508373ffffffffffffffffffffffffffffffffffffffff166342842e0e3033856040518463ffffffff1660e01b81526004016107cd93929190611ff2565b600060405180830381600087803b1580156107e757600080fd5b505af11580156107fb573d6000803e3d6000fd5b5050505060008373ffffffffffffffffffffffffffffffffffffffff168260405161082590611fc2565b60006040518083038185875af1925050503d8060008114610862576040519150601f19603f3d011682016040523d82523d6000602084013e610867565b606091505b505090508061087557600080fd5b857ffcb0368c1179fddb35b83cbadaddad92bea989131ade5eda5f4b30fa4ba75fe160405160405180910390a25050505050600160008190555050565b600481815481106108c257600080fd5b906000526020600020016000915054906101000a900473ffffffffffffffffffffffffffffffffffffffff1681565b6005600082815260200190815260200160002060050160009054906101000a900473ffffffffffffffffffffffffffffffffffffffff1673ffffffffffffffffffffffffffffffffffffffff163373ffffffffffffffffffffffffffffffffffffffff1614610995576040517f08c379a000000000000000000000000000000000000000000000000000000000815260040161098c906120e1565b60405180910390fd5b60006005600083815260200190815260200160002060000160009054906101000a900473ffffffffffffffffffffffffffffffffffffffff16905060006005600084815260200190815260200160002060020154905060006005600085815260200190815260200160002060050160146101000a81548160ff021916908315150217905550808273ffffffffffffffffffffffffffffffffffffffff16847fe77124d09d4fe5d6034efb5af696f9882b5cded58f14fe40af9cf629b789a1ee60405160405180910390a4505050565b610a6c61188f565b73ffffffffffffffffffffffffffffffffffffffff16610a8a610dda565b73ffffffffffffffffffffffffffffffffffffffff1614610ae0576040517f08c379a0000000000000000000000000000000000000000000000000000000008152600401610ad790612161565b60405180910390fd5b610aea6000611897565b565b60606000610afa600261195d565b90506000808267ffffffffffffffff811115610b3f577f4e487b7100000000000000000000000000000000000000000000000000000000600052604160045260246000fd5b604051908082528060200260200182016040528015610b7857816020015b610b6561196b565b815260200190600190039081610b5d5790505b50905060005b83811015610d505760056000600183610b9791906122c2565b81526020019081526020016000206040518060e00160405290816000820160009054906101000a900473ffffffffffffffffffffffffffffffffffffffff1673ffffffffffffffffffffffffffffffffffffffff1673ffffffffffffffffffffffffffffffffffffffff1681526020016001820154815260200160028201548152602001600382015481526020016004820160009054906101000a900473ffffffffffffffffffffffffffffffffffffffff1673ffffffffffffffffffffffffffffffffffffffff1673ffffffffffffffffffffffffffffffffffffffff1681526020016005820160009054906101000a900473ffffffffffffffffffffffffffffffffffffffff1673ffffffffffffffffffffffffffffffffffffffff1673ffffffffffffffffffffffffffffffffffffffff1681526020016005820160149054906101000a900460ff161515151581525050828481518110610d24577f4e487b7100000000000000000000000000000000000000000000000000000000600052603260045260246000fd5b60200260200101819052508280610d3a906123de565b9350508080610d48906123de565b915050610b7e565b5080935050505090565b600060056000838152602001908152602001600020600201549050919050565b600060056000838152602001908152602001600020600301549050919050565b60006005600083815260200190815260200160002060000160009054906101000a900473ffffffffffffffffffffffffffffffffffffffff169050919050565b6000600160009054906101000a900473ffffffffffffffffffffffffffffffffffffffff16905090565b610e0c61196b565b600560008381526020019081526020016000206040518060e00160405290816000820160009054906101000a900473ffffffffffffffffffffffffffffffffffffffff1673ffffffffffffffffffffffffffffffffffffffff1673ffffffffffffffffffffffffffffffffffffffff1681526020016001820154815260200160028201548152602001600382015481526020016004820160009054906101000a900473ffffffffffffffffffffffffffffffffffffffff1673ffffffffffffffffffffffffffffffffffffffff1673ffffffffffffffffffffffffffffffffffffffff1681526020016005820160009054906101000a900473ffffffffffffffffffffffffffffffffffffffff1673ffffffffffffffffffffffffffffffffffffffff1673ffffffffffffffffffffffffffffffffffffffff1681526020016005820160149054906101000a900460ff1615151515815250509050919050565b60026000541415610fb2576040517f08c379a0000000000000000000000000000000000000000000000000000000008152600401610fa990612181565b60405180910390fd5b60026000819055508282600073ffffffffffffffffffffffffffffffffffffffff168273ffffffffffffffffffffffffffffffffffffffff16141561102c576040517f08c379a000000000000000000000000000000000000000000000000000000000815260040161102390612081565b60405180910390fd5b60008273ffffffffffffffffffffffffffffffffffffffff16636352211e836040518263ffffffff1660e01b815260040161106791906121fc565b60206040518083038186803b15801561107f57600080fd5b505afa158015611093573d6000803e3d6000fd5b505050506040513d601f19601f820116820180604052508101906110b79190611abc565b90508073ffffffffffffffffffffffffffffffffffffffff163373ffffffffffffffffffffffffffffffffffffffff1614611127576040517f08c379a000000000000000000000000000000000000000000000000000000000815260040161111e906121c1565b60405180910390fd5b662386f26fc100003414611170576040517f08c379a000000000000000000000000000000000000000000000000000000000815260040161116790612141565b60405180910390fd5b600084116111b3576040517f08c379a00000000000000000000000000000000000000000000000000000000081526004016111aa90612121565b60405180910390fd5b6111bd6002611879565b60006111c9600261195d565b90508673ffffffffffffffffffffffffffffffffffffffff166342842e0e3330896040518463ffffffff1660e01b815260040161120893929190611ff2565b600060405180830381600087803b15801561122257600080fd5b505af1158015611236573d6000803e3d6000fd5b505050506040518060e001604052808873ffffffffffffffffffffffffffffffffffffffff168152602001828152602001878152602001868152602001600073ffffffffffffffffffffffffffffffffffffffff1681526020013373ffffffffffffffffffffffffffffffffffffffff168152602001600115158152506005600083815260200190815260200160002060008201518160000160006101000a81548173ffffffffffffffffffffffffffffffffffffffff021916908373ffffffffffffffffffffffffffffffffffffffff16021790555060208201518160010155604082015181600201556060820151816003015560808201518160040160006101000a81548173ffffffffffffffffffffffffffffffffffffffff021916908373ffffffffffffffffffffffffffffffffffffffff16021790555060a08201518160050160006101000a81548173ffffffffffffffffffffffffffffffffffffffff021916908373ffffffffffffffffffffffffffffffffffffffff16021790555060c08201518160050160146101000a81548160ff0219169083151502179055509050508673ffffffffffffffffffffffffffffffffffffffff1686827f892fdcb1d6d226f8cb53481d2f306c5ab2cc55a2085513dc7f4edebb86f528c18860405161142491906121fc565b60405180910390a4505050506001600081905550505050565b60006005600083815260200190815260200160002060050160149054906101000a900460ff169050919050565b60606000611478600261195d565b90506000805b828110156114e457600115156005600060018461149b91906122c2565b815260200190815260200160002060050160149054906101000a900460ff16151514156114d15781806114cd906123de565b9250505b80806114dc906123de565b91505061147e565b5060008167ffffffffffffffff811115611527577f4e487b7100000000000000000000000000000000000000000000000000000000600052604160045260246000fd5b60405190808252806020026020018201604052801561156057816020015b61154d61196b565b8152602001906001900390816115455790505b5090506000805b8481101561177657600115156005600060018461158491906122c2565b815260200190815260200160002060050160149054906101000a900460ff161515141561176357600560006001836115bc91906122c2565b81526020019081526020016000206040518060e00160405290816000820160009054906101000a900473ffffffffffffffffffffffffffffffffffffffff1673ffffffffffffffffffffffffffffffffffffffff1673ffffffffffffffffffffffffffffffffffffffff1681526020016001820154815260200160028201548152602001600382015481526020016004820160009054906101000a900473ffffffffffffffffffffffffffffffffffffffff1673ffffffffffffffffffffffffffffffffffffffff1673ffffffffffffffffffffffffffffffffffffffff1681526020016005820160009054906101000a900473ffffffffffffffffffffffffffffffffffffffff1673ffffffffffffffffffffffffffffffffffffffff1673ffffffffffffffffffffffffffffffffffffffff1681526020016005820160149054906101000a900460ff161515151581525050838381518110611749577f4e487b7100000000000000000000000000000000000000000000000000000000600052603260045260246000fd5b6020026020010181905250818061175f906123de565b9250505b808061176e906123de565b915050611567565b508194505050505090565b61178961188f565b73ffffffffffffffffffffffffffffffffffffffff166117a7610dda565b73ffffffffffffffffffffffffffffffffffffffff16146117fd576040517f08c379a00000000000000000000000000000000000000000000000000000000081526004016117f490612161565b60405180910390fd5b600073ffffffffffffffffffffffffffffffffffffffff168173ffffffffffffffffffffffffffffffffffffffff16141561186d576040517f08c379a0000000000000000000000000000000000000000000000000000000008152600401611864906120a1565b60405180910390fd5b61187681611897565b50565b6001816000016000828254019250508190555050565b600033905090565b6000600160009054906101000a900473ffffffffffffffffffffffffffffffffffffffff16905081600160006101000a81548173ffffffffffffffffffffffffffffffffffffffff021916908373ffffffffffffffffffffffffffffffffffffffff1602179055508173ffffffffffffffffffffffffffffffffffffffff168173ffffffffffffffffffffffffffffffffffffffff167f8be0079c531659141344cd1fd0a4f28419497f9722a3daafe3b4186f6b6457e060405160405180910390a35050565b600081600001549050919050565b6040518060e00160405280600073ffffffffffffffffffffffffffffffffffffffff168152602001600081526020016000815260200160008152602001600073ffffffffffffffffffffffffffffffffffffffff168152602001600073ffffffffffffffffffffffffffffffffffffffff1681526020016000151581525090565b60006119ff6119fa8461223c565b612217565b905082815260208101848484011115611a1757600080fd5b611a2284828561239e565b509392505050565b600081359050611a39816127fe565b92915050565b600081519050611a4e816127fe565b92915050565b600082601f830112611a6557600080fd5b8135611a758482602086016119ec565b91505092915050565b600081359050611a8d81612815565b92915050565b600060208284031215611aa557600080fd5b6000611ab384828501611a2a565b91505092915050565b600060208284031215611ace57600080fd5b6000611adc84828501611a3f565b91505092915050565b60008060008060808587031215611afb57600080fd5b6000611b0987828801611a2a565b9450506020611b1a87828801611a2a565b9350506040611b2b87828801611a7e565b925050606085013567ffffffffffffffff811115611b4857600080fd5b611b5487828801611a54565b91505092959194509250565b600080600060608486031215611b7557600080fd5b6000611b8386828701611a2a565b9350506020611b9486828701611a7e565b9250506040611ba586828701611a7e565b9150509250925092565b600060208284031215611bc157600080fd5b6000611bcf84828501611a7e565b91505092915050565b60008060408385031215611beb57600080fd5b6000611bf985828601611a7e565b9250506020611c0a85828601611a7e565b9150509250929050565b6000611c208383611e88565b60e08301905092915050565b611c358161232a565b82525050565b611c4481612318565b82525050565b611c5381612318565b82525050565b6000611c648261227d565b611c6e8185612295565b9350611c798361226d565b8060005b83811015611caa578151611c918882611c14565b9750611c9c83612288565b925050600181019050611c7d565b5085935050505092915050565b611cc08161233c565b82525050565b611ccf8161233c565b82525050565b611cde81612348565b82525050565b6000611cf16024836122b1565b9150611cfc82612496565b604082019050919050565b6000611d146026836122b1565b9150611d1f826124e5565b604082019050919050565b6000611d376029836122b1565b9150611d4282612534565b604082019050919050565b6000611d5a6044836122b1565b9150611d6582612583565b606082019050919050565b6000611d7d6026836122b1565b9150611d88826125f8565b604082019050919050565b6000611da0603f836122b1565b9150611dab82612647565b604082019050919050565b6000611dc36033836122b1565b9150611dce82612696565b604082019050919050565b6000611de66020836122b1565b9150611df1826126e5565b602082019050919050565b6000611e096000836122a6565b9150611e148261270e565b600082019050919050565b6000611e2c601f836122b1565b9150611e3782612711565b602082019050919050565b6000611e4f6042836122b1565b9150611e5a8261273a565b606082019050919050565b6000611e726025836122b1565b9150611e7d826127af565b604082019050919050565b60e082016000820151611e9e6000850182611c3b565b506020820151611eb16020850182611fa4565b506040820151611ec46040850182611fa4565b506060820151611ed76060850182611fa4565b506080820151611eea6080850182611c2c565b5060a0820151611efd60a0850182611c2c565b5060c0820151611f1060c0850182611cb7565b50505050565b60e082016000820151611f2c6000850182611c3b565b506020820151611f3f6020850182611fa4565b506040820151611f526040850182611fa4565b506060820151611f656060850182611fa4565b506080820151611f786080850182611c2c565b5060a0820151611f8b60a0850182611c2c565b5060c0820151611f9e60c0850182611cb7565b50505050565b611fad81612394565b82525050565b611fbc81612394565b82525050565b6000611fcd82611dfc565b9150819050919050565b6000602082019050611fec6000830184611c4a565b92915050565b60006060820190506120076000830186611c4a565b6120146020830185611c4a565b6120216040830184611fb3565b949350505050565b600060208201905081810360008301526120438184611c59565b905092915050565b60006020820190506120606000830184611cc6565b92915050565b600060208201905061207b6000830184611cd5565b92915050565b6000602082019050818103600083015261209a81611ce4565b9050919050565b600060208201905081810360008301526120ba81611d07565b9050919050565b600060208201905081810360008301526120da81611d2a565b9050919050565b600060208201905081810360008301526120fa81611d4d565b9050919050565b6000602082019050818103600083015261211a81611d70565b9050919050565b6000602082019050818103600083015261213a81611d93565b9050919050565b6000602082019050818103600083015261215a81611db6565b9050919050565b6000602082019050818103600083015261217a81611dd9565b9050919050565b6000602082019050818103600083015261219a81611e1f565b9050919050565b600060208201905081810360008301526121ba81611e42565b9050919050565b600060208201905081810360008301526121da81611e65565b9050919050565b600060e0820190506121f66000830184611f16565b92915050565b60006020820190506122116000830184611fb3565b92915050565b6000612221612232565b905061222d82826123ad565b919050565b6000604051905090565b600067ffffffffffffffff82111561225757612256612456565b5b61226082612485565b9050602081019050919050565b6000819050602082019050919050565b600081519050919050565b6000602082019050919050565b600082825260208201905092915050565b600081905092915050565b600082825260208201905092915050565b60006122cd82612394565b91506122d883612394565b9250827fffffffffffffffffffffffffffffffffffffffffffffffffffffffffffffffff0382111561230d5761230c612427565b5b828201905092915050565b600061232382612374565b9050919050565b600061233582612374565b9050919050565b60008115159050919050565b60007fffffffff0000000000000000000000000000000000000000000000000000000082169050919050565b600073ffffffffffffffffffffffffffffffffffffffff82169050919050565b6000819050919050565b82818337600083830152505050565b6123b682612485565b810181811067ffffffffffffffff821117156123d5576123d4612456565b5b80604052505050565b60006123e982612394565b91507fffffffffffffffffffffffffffffffffffffffffffffffffffffffffffffffff82141561241c5761241b612427565b5b600182019050919050565b7f4e487b7100000000000000000000000000000000000000000000000000000000600052601160045260246000fd5b7f4e487b7100000000000000000000000000000000000000000000000000000000600052604160045260246000fd5b6000601f19601f8301169050919050565b7f4e46544d61726b65743a204e667420636f6e747261637420616464726573732060008201527f6973203000000000000000000000000000000000000000000000000000000000602082015250565b7f4f776e61626c653a206e6577206f776e657220697320746865207a65726f206160008201527f6464726573730000000000000000000000000000000000000000000000000000602082015250565b7f4e46544d61726b65743a20627579546f6b656e3a3a207468652070726963652060008201527f69732077726f6e67210000000000000000000000000000000000000000000000602082015250565b7f4e46544d61726b65743a2072656d6f766546726f6d4c697374696e673a3a204f60008201527f6e6c7920746f6b656e206f776e65722063616e20756e6c69737420746865207460208201527f6f6b656e00000000000000000000000000000000000000000000000000000000604082015250565b7f4e46544d61726b65743a20627579546f6b656e3a204e4654206e6f7420666f7260008201527f2073616c65210000000000000000000000000000000000000000000000000000602082015250565b7f4e46544d61726b65743a206d61726b6574546f6b656e3a3a20546f6b656e207060008201527f72696365206d7573742062652067726561746572207468616e20302077656900602082015250565b7f4e46544d61726b65743a206d61726b6574546f6b656e3a3a204c697374696e6760008201527f207072696365206d757374206265207061696400000000000000000000000000602082015250565b7f4f776e61626c653a2063616c6c6572206973206e6f7420746865206f776e6572600082015250565b50565b7f5265656e7472616e637947756172643a207265656e7472616e742063616c6c00600082015250565b7f4e46544d61726b65743a206368616e67654e667450726963653a3a204f6e6c7960008201527f2073656c6c65722063616e206368616e67652074686520746f6b656e2070726960208201527f6365000000000000000000000000000000000000000000000000000000000000604082015250565b7f4e46544d61726b65743a2053656e646572206d75737420626520746f6b656e2060008201527f6f776e6572000000000000000000000000000000000000000000000000000000602082015250565b61280781612318565b811461281257600080fd5b50565b61281e81612394565b811461282957600080fd5b5056fea2646970667358221220ee59e3db54bc12acdefb460fcd1514449b837c85a56db364faac9896f23eff0e64736f6c63430008040033",
  "linkReferences": {},
  "deployedLinkReferences": {}
}